:020000040800F2
:1000000000000C20C12C0008352B00083D2B0008F7
:10001000452B00084D2B0008552B0008112D00081A
:100020000000000000000000000000005D2B000840
:100030006B2B000800000000792B0008872B0008BC
:10004000112D0008112D0008112D0008112D000898
:10005000112D0008112D0008112D0008112D000888
:10006000112D0008112D0008112D0008112D000878
:10007000112D0008112D0008112D0008112D000868
:10008000112D0008952B0008112D0008A92B000840
:10009000B92B0008C92B0008112D0008112D0008EC
:1000A000112D0008112D0008112D0008112D000838
:1000B00000000000D92B0008112D0008112D0008A8
:1000C000112D0008112D0008112D0008112D000818
:1000D000112D0008ED2B0008112D0008012C00083F
:1000E000152C0008112D0008112D0008112D0008F5
:1000F000112D0008112D0008112D0008112D0008E8
:10010000112D0008112D0008112D0008112D0008D7
:10011000112D0008112D0008112D0008112D0008C7
:10012000112D0008112D0008112D0008292C0008A0
:100130003D2C0008112D0008112D0008112D00087C
:10014000112D0008112D0008112D0008112D000897
:10015000112D0008112D0008112D0008112D000887
:10016000112D0008112D0008112D0008112D000877
:10017000112D0008112D0008112D0008112D000867
:10018000112D0008112D0008112D0008112D000857
:10019000112D0008112D0008112D0008112D000847
:1001A000112D0008112D0008112D0008112D000837
:1001B000112D000800000000112D0008112D00086D
:1001C000112D000800000000112D0008112D00085D
:1001D000112D0008112D0008112D0008112D000807
:1001E000112D0008112D0008112D0008112D0008F7
:1001F0000000000000000000112D0008112D000873
:10020000112D0008112D0008112D0008112D0008D6
:10021000112D0008112D0008112D0008112D0008C6
:10022000112D0008112D0008112D0008112D0008B6
:08023000112D0008112D00083A
:1002380010B5054C237833B9044B13B10448AFF318
:1002480000800123237010BD680300200000000017
:1002580028EE000808B5034B1BB103490348AFF368
:10026800008008BD000000006C03002028EE000894
:1002780080B584B000AF0346FB71002108480EF03A
:1002880069F9FB79184600F021F80346FB73FB7BFC
:10029800002B01D000BFFDE700BF1037BD4680BD71
:1002A800C912000880B584B000AFF860B960134681
:1002B800FB710EF0C9FAFB791A46B968F86800F0C4
:1002C800A5F800BF1037BD4680BD000080B58EB0D0
:1002D80006AF0346FB714A4A07F1100392E8030090
:1002E80018600433198002330A0C1A708023FB77D4
:1002F8000CF0C3FE4FF4FA6002F0CEFD07F10C02D9
:1003080007F10F031146184600F01AF907F10B011F
:10031800FB7F3C4A18460DF08CFF0346BB77394BF0
:100328005B7903F0C003C02B01D000BFFDE7FB7A67
:10033800344A194600200DF0EEFE0346BB77FB79E0
:10034800194601200DF0F9FF0346BB770DF0CBFBF2
:100358000346BB77BB7F002B01D0BB7F4CE007F186
:100368001C0207F11803019307F11A0300931346BF
:100378000722002101200DF005FA0346BB77BB7F59
:10038800002B01D0BB7F37E0B88B798B07F11003C6
:100398000093072300220DF0AEFD0346BB77BB7F19
:1003A800002B01D0BB7F27E00DF074FB0346BB7721
:1003B80000200DF04DF800230493134B0393012301
:1003C80002931023019307230093002301220121A4
:1003D80001200DF09AF80346BB77BB7F002B01D0B4
:1003E800BB7F09E000F09AF90346BB77BB7F002B7F
:1003F80001D000BFFDE7002318462037BD4680BD69
:1004080040EE00088403002040E2010080B586B079
:1004180000AFF860B9601346FB713E4B1B78DBB246
:10042800002B04D000F0D8FE3A4B00221A703A4B49
:100438001B78DBB2002B0FD0384B1B78DBB2002BBC
:100448000AD1374B1B889BB218460DF048FA034671
:10045800FB75324B01221A70324B1B78DBB2002B32
:1004680053D0314B1B78DBB2002B08D0FB79002B23
:1004780002D0FB79012B02D1F86800F02DFB2B4B41
:100488001B78DBB2002B08D0FB79002B02D0FB795C
:10049800012B02D1F86800F073FB254B1B78DBB207
:1004A800002B08D0FB79002B02D0FB79022B02D15C
:1004B800B86800F0B9FB1F4B1B78DBB2002B08D0E3
:1004C800FB79002B02D0FB79022B02D1B86800F02F
:1004D80019FC194B1B78DBB2002B08D0FB79002BD9
:1004E80002D0FB79022B02D1B86800F07DFC134BD7
:1004F8001B78DBB2002B08D0FB79002B02D0FB79EC
:10050800022B02D1B86800F0E1FC00BF1837BD46E5
:1005180080BD00BF00000020C0030020C1030020F0
:10052800BE030020C2030020B8030020B903002046
:10053800BA030020BB030020BC030020BD03002039
:1005480090B589B002AF7860396007F1100407F1FF
:10055800150207F1120107F1160007F10E030093C7
:1005680023460CF0B3FD0346FB75FB7D002B24D11D
:100578007B8A1B0A9BB2DAB27B681A707B8A1B02E1
:100588009AB23B681A803B681B881AB2FB891BB277
:1005980003F0F0031BB213431BB29AB23B681A80F4
:1005A8003B681B881AB2FB891BB203F00F031BB20E
:1005B80013431BB29AB23B681A80FB7D18461C375E
:1005C800BD4690BD90B482B000AF044608461146BF
:1005D8001A462346FB710346BB800B46BB71134684
:1005E800FB70084B01221A70074B01221A70074B47
:1005F80001221A70064ABB88138000BF0837BD461F
:1006080090BC7047C0030020C1030020C203002033
:10061800BE03002080B483B000AF0346FB710B46D5
:10062800BB801346BB710A4B00221A70094B00228B
:100638001A70094B00221A70084B01221A70084BD5
:1006480000221A8000BF0C37BD465DF8047B704756
:10065800C0030020C1030020C203002000000020C6
:10066800BE03002080B582B000AF0346FB800B4676
:10067800BB8013467B80BB88184600F099FC00BFFE
:100688000837BD4680BD90B585B002AF0446084620
:1006980011461A462346FB800346BB800B467B80E7
:1006A80013463B803B88DCB27A88B988F888BB69F6
:1006B8000093234600F0E0FC00BF0C37BD4690BD18
:1006C80080B584B000AF0346FB80064B1B889BB205
:1006D800054918460CF0E6FF0346FB7300BF1037C8
:1006E800BD4680BDBE03002040E2010080B483B057
:1006F80000AF0346FB800B467B7113463B717B7949
:10070800022B02D0044B01221A7000BF0C37BD46E1
:100718005DF8047B704700BFC203002090B58DB020
:1007280006AF0623FB75FB7D1A4652001344DBB265
:100738000133BB751B233B71C5237B71D523BB716B
:10074800A523FB7102233B7200237B72B423BB7287
:100758009A23FB72E1233B7311237B730123BB7341
:100768000023FB7300233B7400237B740023BB74BA
:100778000023FB74AA4B1C463B1D0FCB84E80F00DB
:10078800BB7DA84A00920122A54902200DF0D5F9A7
:1007980003467B757B7D002B01D0472391E11B230A
:1007A8003B71C5237B71D523BB71A523FB71022344
:1007B8003B7200237B723623BB72AC23FB72E123AE
:1007C8003B7311237B730123BB730023FB7300234B
:1007D8003B7400237B740023BB740023FB74924B8F
:1007E8001C463B1D0FCB84E80F008E4B18888F4B9F
:1007F80005930023049310230393042302930023F7
:100808000193122300931023874A02210DF06BFAFB
:1008180003467B757B7D002B01D0472351E11B23C9
:100828003B71C5237B71D523BB71A523FB710223C3
:100838003B7200237B723623BB72AC23FB72E1232D
:100848003B7311237B730123BB730023FB730023CA
:100858003B7400237B74E023BB740023FB74724B4E
:100868001C463B1D0FCB84E80F006E4B1888704B5D
:100878000593002304931023039304230293002376
:100888000193122300931223674A02210DF02BFAD9
:1008980003467B757B7D002B01D0472311E11B2389
:1008A8003B71C5237B71D523BB71A523FB71022343
:1008B8003B7200237B723623BB72AC23FB72E123AD
:1008C8003B7311237B730123BB730023FB7300234A
:1008D8003B7400237B74C023BB740123FB74524B0D
:1008E8001C463B1D0FCB84E80F004E4B1888514B1C
:1008F80005930023049310230393042302930023F6
:100908000193122300931223474A02210DF0EBF9B9
:1009180003467B757B7D002B01D04723D1E01B2349
:100928003B71C5237B71D523BB71A523FB710223C2
:100938003B7200237B723623BB72AC23FB72E1232C
:100948003B7311237B730123BB730023FB730023C9
:100958003B7400237B74A023BB740223FB74324BCB
:100968001C463B1D0FCB84E80F002E4B1888324BDA
:100978000593002304931023039304230293002375
:100988000193122300931223274A02210DF0ABF999
:1009980003467B757B7D002B01D0472391E01B2309
:1009A8003B71C5237B71D523BB71A523FB71022342
:1009B8003B7200237B723623BB72AC23FB72E123AC
:1009C8003B7311237B730123BB730023FB73002349
:1009D8003B7400237B748023BB740323FB74124B8A
:1009E8001C463B1D0FCB84E80F000E4B1888134B99
:1009F80005930023049310230393042302930023F5
:100A08000193122300931223074A02210DF06BF978
:100A180003467B757B7D002B12D0472351E000BF36
:100A2800980300208A030020A80300208C030020DC
:100A38008E030020900300209203002094030020DE
:100A48001B233B71C5237B71D523BB71A523FB7188
:100A580002233B7200237B723623BB72AC23FB72EA
:100A6800E1233B7311237B730123BB730023FB73C7
:100A780000233B7400237B746023BB740423FB7442
:100A8800124B1C463B1D0FCB84E80F00104B1888F7
:100A9800104B05930023049310230393042302931C
:100AA80000230193122300930E23084A02210DF01C
:100AB8001AF903467B757B7D002B01D0472300E0A4
:100AC800002318461C37BD4690BD00BFA803002070
:100AD8008A0300209603002080B58AB002AF7860B0
:100AE80002F0CEF90346DB08DBB23B7302F0C8F92B
:100AF8000346DB0ADBB27B730023FB770023FB771B
:100B080020E0FB7F5B007A6813441A88FB7F01337F
:100B18005B00194607F10C030B44D2B21A70FB7F35
:100B28005B007A6813441B881B0A99B2FB7F013368
:100B38005B00013307F10C021344CAB21A70FB7F41
:100B48000133FB77FB7F062BDBD90B4B18880B4B4C
:100B5800198807F10C030093102300220DF0CBF93C
:100B68000346BB77BB7F002B01D0472300E000235F
:100B780018462037BD4680BD8A0300208C0300201C
:100B880080B58AB002AF786002F07AF90346DB08D4
:100B9800DBB23B7302F074F90346DB0ADBB27B730A
:100BA8000023FB770723FB7720E0FB7F5B007A6855
:100BB80013441A88FB7F063B5B00194607F10C03B8
:100BC8000B44D2B21A70FB7F5B007A6813441B880F
:100BD8001B0A99B2FB7F063B5B00013307F10C024D
:100BE8001344CAB21A70FB7F0133FB77FB7F0E2BCD
:100BF800DBD90B4B18880B4B198807F10C030093B2
:100C0800122300220DF077F90346BB77BB7F002B38
:100C180001D0472300E0002318462037BD4680BD99
:100C28008A0300208E03002080B58AB002AF786066
:100C38000023FB7702F024F90346DB08DBB23B73A1
:100C480002F01EF90346DB0ADBB27B730023FB7755
:100C580039E0FB7F9B007A6813441968FB7F9B008F
:100C6800023307F10C021344CAB21A70FB7F9B00CF
:100C78007A6813441B68190AFB7F9B00033307F14A
:100C88000C021344CAB21A70FB7F9B007A681344A3
:100C98001B68190CFB7F9B00043307F10C021344FB
:100CA800CAB21A70FB7F9B007A6813441B68190E3E
:100CB800FB7F9B00053307F10C021344CAB21A707C
:100CC800FB7F0133FB77FB7F032BC2D90B4B1888C3
:100CD8000B4B198807F10C030093122300220DF027
:100CE8000AF90346BB77BB7F002B01D0472300E0FE
:100CF800002318462037BD4680BD00BF8A03002068
:100D08009003002080B58AB002AF78600023FB779B
:100D180002F0B6F80346DB08DBB23B7302F0B0F82A
:100D28000346DB0ADBB27B730423FB773DE0FB7FE2
:100D38009B007A6813441968FB7F043B9B000233CD
:100D480007F10C021344CAB21A70FB7F9B007A6841
:100D580013441B68190AFB7F043B9B00033307F10C
:100D68000C021344CAB21A70FB7F9B007A681344C2
:100D78001B68190CFB7F043B9B00043307F10C0232
:100D88001344CAB21A70FB7F9B007A6813441B682D
:100D9800190EFB7F043B9B00053307F10C0213443B
:100DA800CAB21A70FB7F0133FB77FB7F072BBED9D2
:100DB8000B4B18880B4B198807F10C03009312236F
:100DC80000220DF098F80346BB77BB7F002B01D0BB
:100DD800472300E0002318462037BD4680BD00BFEA
:100DE8008A0300209203002080B58AB002AF7860A1
:100DF8000023FB7702F044F80346DB08DBB23B73C1
:100E080002F03EF80346DB0ADBB27B730823FB776C
:100E18003DE0FB7F9B007A6813441968FB7F083B21
:100E28009B00023307F10C021344CAB21A70FB7F0D
:100E38009B007A6813441B68190AFB7F083B9B00D8
:100E4800033307F10C021344CAB21A70FB7F9B00EC
:100E58007A6813441B68190CFB7F083B9B0004331A
:100E680007F10C021344CAB21A70FB7F9B007A6820
:100E780013441B68190EFB7F083B9B00053307F1E1
:100E88000C021344CAB21A70FB7F0133FB77FB7F55
:100E98000B2BBED90B4B18880B4B198807F10C0389
:100EA8000093122300220DF026F80346BB77BB7F80
:100EB800002B01D0472300E0002318462037BD4609
:100EC80080BD00BF8A0300209403002080B588B04D
:100ED80002AF78600023FB7501F0D2FF0346DB0800
:100EE800DBB23B7201F0CCFF0346DB0ADBB27B725C
:100EF8000C23FB753DE0FB7D9B007A681344196861
:100F0800FB7D0C3B9B00023307F108021344CAB275
:100F18001A70FB7D9B007A6813441B68190AFB7DD5
:100F28000C3B9B00033307F108021344CAB21A7042
:100F3800FB7D9B007A6813441B68190CFB7D0C3BF6
:100F48009B00043307F108021344CAB21A70FB7DF0
:100F58009B007A6813441B68190EFB7D0C3B9B00B1
:100F6800053307F108021344CAB21A70FB7D013336
:100F7800FB75FB7D0E2BBED90B4B18880B4B1988C4
:100F880007F1080300930E2300220CF0B4FF034678
:100F9800BB75BB7D002B01D0472300E0002318461A
:100FA8001837BD4680BD00BF8A0300209603002085
:100FB80080B584B000AF0346FB80FA88254B1B88B8
:100FC80001339A4203D12448FFF72EFE30E0FA8815
:100FD800224B1B8801339A4203D11F48FFF792FE28
:100FE80026E0FA881E4B1B8801339A4203D11A481F
:100FF800FFF7FAFE1CE0FA881A4B1B8801339A4265
:1010080003D11548FFF762FF12E0FA88164B1B88D8
:1010180001339A4203D11548FFF75EFD08E0FA88CC
:10102800134B1B8801339A4202D11048FFF7A8FDE1
:10103800104B1B889BB2002B07D00E4B1B889BB212
:1010480018460DF00AF80346FB7300BF1037BD467B
:1010580080BD00BF90030020E4030020920300201D
:1010680094030020960300208C030020C403002072
:101078008E030020BE03002090B482B000AF044667
:10108800084611461A462346FB800346BB800B469A
:101098007B8013467B70BA88434B1B8802339A4285
:1010A8000FD13B691B78012B03D1404B01221A70E9
:1010B80074E03B691B78002B70D13C4B00221A70FE
:1010C8006CE0BA883A4B1B8802339A420FD13B69CD
:1010D8001B78012B03D1374B01221A705EE03B6964
:1010E8001B78002B5AD1334B00221A7056E0BA886D
:1010F800314B1B8802339A420FD13B691B78012B75
:1011080003D12E4B01221A7048E03B691B78002B53
:1011180044D12A4B00221A7040E0BA88284B1B8819
:1011280002339A420FD13B691B78012B03D1254B1F
:1011380001221A7032E03B691B78002B2ED1214B1B
:1011480000221A702AE0BA881F4B1B8802339A4281
:101158000FD13B691B78012B03D11C4B01221A705C
:101168001CE03B691B78002B18D1184B00221A7021
:1011780014E0BA88164B1B8802339A420ED13B6999
:101188001B78012B03D1134B01221A7006E03B692F
:101198001B78002B02D10F4B00221A7000BF0837B2
:1011A800BD4690BC704700BF8C030020B8030020E8
:1011B8008E030020B903002090030020BA0300200A
:1011C80092030020BB03002094030020BC030020EE
:1011D80096030020BD03002080B592B008AF364AC0
:1011E80007F11C0392E8030083E8030002233B7025
:1011F8000A237B700023BB700823FB7009233B7113
:1012080042237B716C23BB717523FB7165233B7291
:101218004E237B725223BB724723FB720D233B7311
:10122800FF237B730123BB738023FB7300233B7471
:10123800F4237B740023BB740023FB741F4B5B797E
:101248003B751E4B1B797B751C4BDB78BB751B4BA9
:101258009B78FB75194B5B783B76184B1B787B7634
:10126800BB7C43F00103DBB2BB74002100200BF010
:1012780073FF0023069300230593002304930023A0
:10128800039307F11C03029308230193002300939F
:1012980000234FF480524FF4006100200BF0D5FF7B
:1012A800034687F827303B4619461A200CF077FB8F
:1012B80000BF2837BD4680BD48EE000884030020E3
:1012C80080B588B000AF78607B68BB61BB691B786C
:1012D800042B63D1BB6901337B617B691B783E2B8F
:1012E8001ED17B690233FB600023FB6114E0FB68BD
:1012F8001B7819462B4AFB6932F83330994208D1DA
:10130800284AFB69DB0013445B68FA68013210461F
:101318009847FB690133FB61FB69092BE7D93DE07D
:101328007B691B78FF2B1ED17B6902333B6100234D
:10133800FB6114E03B691B889AB21B49FB6931F8D1
:1013480033309A4208D1184AFB69DB0013445B68C2
:101358003A69023210469847FB690133FB61FB6921
:101368002A2BE7D91AE00023FB6114E07B691B787C
:1013780019460E4AFB6932F83330994208D10B4AB4
:10138800FB69DB0013445B687A69023210469847B0
:10139800FB690133FB61FB69062BE7D900BF2037E6
:1013A800BD4680BD58EF0008A8EF000820EF0008F0
:1013B80080B500AF112004F043FA00BF80BD80B5AE
:1013C80000AF112004F04AFA00BF80BD80B58AB092
:1013D80000AF7860304BD3F88C302F4A43F00103CC
:1013E800C2F88C302C4BD3F88C3003F001033B61EE
:1013F8003B69294BD3F88C30274A43F00203C2F8E3
:101408008C30254BD3F88C3003F00203FB60FB686B
:10141800214BD3F88C30204A43F00803C2F88C30B3
:101428001D4BD3F88C3003F00803BB60BB68402326
:101438007B611A4BBB610023FB6107F1140319465A
:10144800174806F02BF980237B610123BB61002339
:10145800FB6100233B6207F114031946104806F0AC
:101468001DF904237B610123BB610023FB61002379
:101478003B6207F1140319460A4806F00FF90122E6
:101488000421084806F0E0FB00F094F903461846EA
:101498002837BD4680BD00BF000C02460000111071
:1014A80000040242000C024280B500AF4021074808
:1014B80006F0D4FA0421064806F0D0FA8021034841
:1014C80006F0CCFA0023184680BD00BF0004024293
:1014D800000C024280B500AF012204210A4806F040
:1014E800B3FB00228021094806F0AEFB052001F07D
:1014F800D3FC01228021054806F0A6FB052001F057
:10150800CBFC0023184680BD000C024200040242B6
:1015180080B588B000AF78600B467B8000237B776E
:101528000023FB750B233B6100233B75FFF747FF47
:10153800002204212B4806F087FB07F1080107F178
:1015480010030522184600F065F93B7B1BB21B020D
:101558001AB2FB7A1BB213431BB2FB83FB8B002B23
:101568001ED0FA8B7B889A4201D97B88FB830023A3
:101578007B7710E007F1160107F1170301221846DF
:1015880000F048F97B7F7A681344BA7DD2B21A70AA
:101598007B7F01337B777B7F9BB2FA8B9A42E9D8BA
:1015A80001F06EFCB86106E040210F4806F034FBFC
:1015B8000346002B08D001F063FC0246BB69D31A2E
:1015C800B3F57A7FF0D300E000BFFFF7F1FE012208
:1015D8000421044806F038FB7B7F18462037BD46B7
:1015E80080BD00BF000C02420004024280B58AB0F0
:1015F80000AF78600B467B800A237B6100233B7633
:1016080001F03EFC3862FFF7DAFE01F039FCF861C0
:1016180000237B6200220421354806F015FB0AE00E
:1016280001F02EFC0246FB69D31A642B03D96FF034
:1016380002037B6204E000F061F80346002BEFD060
:101648007B6A13F1030F05D101220421284806F013
:10165800FBFA31E007F10C0107F1140305221846E3
:1016680000F0D8F8BB7B1BB21B021AB27B7B1BB203
:1016780013431BB27B837A8B7B889A4206D37B8881
:101688001A461C49786800F0C5F802E06FF00103BB
:101698007B6201220421164806F0D6FA01F0F0FB1D
:1016A80002463B6AD31A642B03D96FF002037B62AC
:1016B80002E07B6A002BA8DB01F0E2FB386206E05F
:1016C80040210D4806F0A8FA0346002B08D001F087
:1016D800D7FB02463B6AD31AB3F57A7FF0D300E012
:1016E80000BFFFF765FE7B6A18462837BD4680BDF8
:1016F800000C02422C0400200004024280B500AF16
:101708004021054806F088FA0346012B0CBF012347
:101718000023DBB2184680BD0004024280B588B0C1
:1017280000AF124B7B60124BBB60124B7B61124BBC
:101738003B61124BFB60124BFB613B1D18460CF0E2
:101748004BFF1049104805F0FDFB104A00210E48D8
:1017580005F0CCFB00220021112004F057F81120DD
:1017680004F06EF800BF2037BD4680BDD5130008D1
:10177800B1140008F515000819150008DD14000853
:101788005D180008060000062004002099170008CC
:1017980080B500AF05E000200DF082F80346002B6D
:1017A80005D1FFF7ABFF0346002BF4D100E000BFE3
:1017B80080BD000080B582B000AF00237B60124B73
:1017C800124A1A60124B1B685A1C11490A60002BF6
:1017D80014D10D480AF00CF80346002B0ED10A4824
:1017E80000F0B4F87B68002B08D1074800F03AF8FD
:1017F8000346002B02D06FF007037B607B68184616
:101808000837BD4680BD00BF2C05002000300140D0
:10181800BC05002080B588B002AFF860B9601346F7
:10182800FB8000237B61FB884FF480520092BA68EA
:10183800F968074809F076FA0346002B02D06FF0E2
:1018480005037B617B6918461837BD4680BD00BF1C
:101858002C05002080B500AF01F012FB03461846A6
:1018680080BD000080B586B000AF78600023FB75AE
:1018780007F1080300221A605A609A607B68324AAE
:101888001A607B684FF480025A607B6800229A6075
:101898007B680722DA607B6800221A617B684FF058
:1018A80080725A617B684FF080629A617B684FF062
:1018B8004052DA617B6800221A627B6800225A6211
:1018C8007B6800229A627B680722DA627B680022C2
:1018D8005A637B6800229A637B680022DA637B681C
:1018E80000229A647B680022DA647B6800221A6509
:1018F8007B6800225A657B6800229A657B68002213
:10190800DA657B6800221A66786808F0FFFB0346F0
:10191800002B01D00123FB750023BB604FF08053DF
:10192800FB6000233B6107F10803194678680AF059
:1019380070F80346002B01D00123FB75FB7D184688
:101948001837BD4680BD00BF0030014080B5BAB031
:1019580000AF786007F11003C022002118460DF08F
:1019680025FA4FF400024FF00003C7E904234FF4AF
:101978000013C7F8C03007F11003184607F0F2FC4F
:10198800344BD3F8A430334A43F48053C2F8A4301C
:10199800304BD3F8A43003F48053FB60FB682D4B25
:1019A800D3F88C302B4A43F00203C2F88C30294B11
:1019B800D3F88C3003F00203BB60BB680823C7F878
:1019C800D4300223C7F8D8300023C7F8DC3000230E
:1019D800C7F8E0300523C7F8E43007F1D403194607
:1019E8001D4805F05BFE1023C7F8D4300223C7F862
:1019F800D8300023C7F8DC300023C7F8E0300523CF
:101A0800C7F8E43007F1D4031946134805F046FE39
:101A18002023C7F8D4300223C7F8D8300023C7F8EA
:101A2800DC300023C7F8E0300523C7F8E43007F1BD
:101A3800D4031946084805F031FE002201213B2055
:101A480003F0E4FE3B2003F0FBFE00BFE837BD4691
:101A580080BD00BF000C02460004024280B582B07F
:101A680000AF01F053F900F0EBF800F0DFFB00F0F5
:101A780041FB00F0F9FA00F045F900F09BFA00F09C
:101A880065FB00F057FB01224FF400615D4806F04A
:101A9800DBF800F013FD00F031FD0720FEF7E8FB4E
:101AA8000021012000F036FD03461A46564B1A70F5
:101AB8000021022000F02EFD03461A46534B1A70EF
:101AC8000021032000F026FD03461A46504B1A70E9
:101AD8000021504803F0A6FF10214E4803F0A2FF52
:101AE8004D4B7C221A804D4B7C221A804A4B1B8816
:101AF80000220021474804F001F8484B1B880022C7
:101B08001021444803F0FAFF4FF6FF724FF001111D
:101B1800434803F021FC0F224249414802F02AF8C9
:101B280000224FF40061374806F08EF83E4B1B78D0
:101B3800DBB2002B3BD03D4B1B78002B37D03C4B06
:101B48001B78002B33D03B4B1B78002B2FD0002366
:101B58007B600BE0334A7B6852F8233099B2364AEF
:101B68007B6822F813107B6801337B607B680E2B3F
:101B7800F0DD012231493048FEF794FB2A4B002260
:101B88001A702C4B00221A702A4B1A78284B1A709C
:101B9800274B1A78254B1A700F222249204801F04A
:101BA800E9FF4FF40061174806F066F828E01E4B7D
:101BB8001B78DBB2002BB9D000233B600BE0194A3D
:101BC8003B6852F8233099B21B4A3B6822F813103D
:101BD8003B6801333B603B680E2BF0DD012217495F
:101BE8001548FEF75FFB104B00221A700F220D49B3
:101BF8000B4801F0BFFF4FF40061024806F03CF8C3
:101C080094E700BF000802426B0800206C0800201F
:101C18006D080020C4060020CC070020CE07002055
:101C2800C0050020D00700202A08002068080020EE
:101C3800690800206A0800200C0800202C080020F1
:101C480080B59EB000AF07F1180360220021184646
:101C58000DF0ACF83B4600221A605A609A60DA60D0
:101C68001A615A614FF4003006F06CF80346002BF5
:101C780001D000F0F5FC0B23BB614FF48033FB610E
:101C88004FF480737B621023BB624FF08063FB626A
:101C980000233B6302233B6503237B650023FB652D
:101CA8000323BB6520233B6602237B660223BB66B6
:101CB8000223FB6600233B6700237B6707F11803B9
:101CC800184606F0DBF80346002B01D000F0C8FCEC
:101CD8001F233B6003237B600023BB600023FB6062
:101CE80000233B6100237B613B460221184606F036
:101CF800A1FF0346002B01D000F0B2FC00BF7837EB
:101D0800BD4680BD80B588B000AF3B46202200218B
:101D180018460DF04BF8964B964A1A60944B4FF4C0
:101D280080225A60924B00229A60914B0022DA601E
:101D38008F4B01221A618E4B08229A618C4B01222B
:101D48001A778B4B002283F82420894B0F229A6242
:101D5800874B002283F82C20854B00225A63844B42
:101D680000229A63824B002283F84020804B002295
:101D78009A667F4B00225A647D4B00221A657C4B81
:101D88000122DA637A4B002283F85420784801F064
:101D980027FC0346002B01D000F062FC764B3B6029
:101DA80006237B600023BB604FF6FF73FB600423B0
:101DB8003B6100237B613B4619466D4802F052FAAD
:101DC8000346002B01D000F04BFC6C4B3B600C230E
:101DD8007B603B461946664802F044FA0346002BEE
:101DE80001D000F03DFC664B3B6012237B603B4614
:101DF80019465F4802F036FA0346002B01D000F07E
:101E08002FFC604B3B6018237B603B4619465848C3
:101E180002F028FA0346002B01D000F021FC5A4BAF
:101E28003B604FF480737B603B461946504802F094
:101E380019FA0346002B01D000F012FC534B3B600B
:101E48004FF483737B603B461946494802F00AFA0F
:101E58000346002B01D000F003FC4D4B3B604FF4D0
:101E680086737B603B461946414802F0FBF90346FE
:101E7800002B01D000F0F4FB464B3B604FF4897314
:101E88007B603B4619463A4802F0ECF90346002BC2
:101E980001D000F0E5FB404B3B604FF48C737B6056
:101EA8003B461946324802F0DDF90346002B01D0C3
:101EB80000F0D6FB394B3B604FF400737B603B4628
:101EC80019462B4802F0CEF90346002B01D000F04A
:101ED800C7FB334B3B6040F206237B603B46194609
:101EE800234802F0BFF90346002B01D000F0B8FBED
:101EF8002C4B3B604FF403737B603B4619461C48F0
:101F080002F0B0F90346002B01D000F0A9FB264BE4
:101F18003B6040F212237B603B461946144802F0AE
:101F2800A1F90346002B01D000F09AFB1F4B3B6040
:101F38004FF406737B603B4619460D4802F092F950
:101F48000346002B01D000F08BFB194B3B604FF48C
:101F580040737B603B461946054802F083F9034607
:101F6800002B01D000F07CFB00BF2037BD4680BDB0
:101F7800C00500200080024202000004040000089E
:101F88000800000C10000010200000144000001889
:101F98008000001C000100200008002E0010003204
:101FA800002000360040003A0080003E0000014258
:101FB8000000024680B58EB000AF07F1080330225A
:101FC800002118460CF0F2FE00237B60244B254AC2
:101FD8001A60234803F004FD0346002B01D000F0EB
:101FE8003FFB0023BB6000233B7400237B74042366
:101FF8007B610023BB610023FB6101233B6200235B
:102008007B620B23FB623E233B6304237B6307F164
:10201800080300221946124803F09EFD0346002BD0
:1020280001D000F01DFB00237B603B1D19460C48C6
:1020380003F032FF0346002B01D000F011FB07F13B
:10204800080310221946064803F086FD0346002BB4
:1020580001D000F005FB00BF3837BD4680BD00BF8A
:10206800C40600200018024680B500AF1F4B204A66
:102078001A601E4B00225A601C4B00229A601B4BB0
:102088000022DA60194B00221A74184B00225A7485
:10209800164B00229A74154B04225A61134B0122E5
:1020A8009A61124B0D22DA61104B02221A620F4B11
:1020B80001225A620D4B01229A620C4B0122DA620C
:1020C8000A4B01221A63094B00225A63074B00226C
:1020D8009A63064B0022DA63044804F08FFF034634
:1020E800002B01D000F0BCFA00BF80BDD80600204C
:1020F80000A4004080B582B000AF0D4BD3F8883003
:102108000B4A43F00103C2F88830094BD3F88830F2
:1021180003F001037B607B68002200211D2003F08F
:1021280075FB1D2003F08CFB00BF0837BD4680BD42
:10213800000C024680B500AF05F0F4FD0346002B05
:1021480001D000F08DFA00BF80BD000080B584B0DA
:1021580000AF3B1D00221A605A609A60314B324A28
:102168001A60304B4FF480025A602E4B00229A605E
:102178002C4B0722DA602B4B00221A61294B4FF0B7
:1021880080725A61274B4FF080629A61254B4FF05D
:102198008052DA61234B00221A62224B00225A62D3
:1021A800204B00229A621F4B0722DA621D4B002245
:1021B8005A631C4B00229A631A4B0022DA63194BAC
:1021C80000229A64174B0022DA64164B00221A6523
:1021D800144B00225A65134B00229A65114B0022BA
:1021E800DA65104B00221A660E4807F08FFF034687
:1021F800002B01D000F034FA00237B604FF08053AD
:10220800BB600023FB603B1D1946064809F001FC32
:102218000346002B01D000F023FA00BF1037BD465B
:1022280080BD00BF3C0700200038004080B58AB060
:1022380000AF07F1140300221A605A609A60DA604E
:102248001A61974BD3F88C30954A43F00403C2F8CF
:102258008C30934BD3F88C3003F004033B613B691B
:102268008F4BD3F88C308E4A43F08003C2F88C3001
:102278008B4BD3F88C3003F08003FB60FB68884BF2
:10228800D3F88C30864A43F00103C2F88C30844B73
:10229800D3F88C3003F00103BB60BB68804BD3F8E4
:1022A8008C307F4A43F00203C2F88C307C4BD3F861
:1022B8008C3003F002037B607B68794BD3F88C3059
:1022C800774A43F00803C2F88C30754BD3F88C304A
:1022D80003F008033B603B6801224FF42751714823
:1022E80005F0B2FC00224FF456416E4805F0ACFCF4
:1022F80000224FF4B8516C4805F0A6FC01224FF4B7
:1023080000416A4805F0A0FC01220421684805F054
:102318009BFC01228021644805F096FC4FF4005391
:102328007B610123BB610123FB6100233B6207F151
:10233800140319465B4805F0B1F94FF480437B61FB
:102348000123BB610223FB6100233B6207F11403F5
:102358001946544805F0A2F949F2C0737B6101237C
:10236800BB610023FB6100233B6207F1140319469C
:102378004C4805F093F94FF4A0537B610123BB61EE
:102388000023FB6100233B6207F11403194646480A
:1023980005F084F94FF4E0637B61464BBB61002391
:1023A800FB6107F114031946404805F077F94FF42B
:1023B80000437B610123BB610023FB6100233B6277
:1023C80007F114031946394805F068F94FF400631A
:1023D8007B611123BB610023FB6100233B6207F192
:1023E800140319462F4805F059F904237B6101238A
:1023F800BB610023FB6100233B6207F1140319460C
:102408002B4805F04BF940237B612B4BBB61002324
:10241800FB6107F114031946234805F03FF98023AF
:102428007B611123BB610023FB6100233B6207F141
:10243800140319461C4805F031F94FF440737B61C9
:102448000123BB610223FB6100233B6207F11403F4
:102458001946154805F022F900220121112003F040
:10246800D5F9112003F0ECF900220221132003F022
:10247800CDF9132003F0E4F900220221142003F01F
:10248800C5F9142003F0DCF900220221152003F01D
:10249800BDF9152003F0D4F900BF2837BD4680BD2B
:1024A800000C0246000802420004024200000242F8
:1024B800000C0242000021100000111080B500AF8E
:1024C80001224FF480710B4805F0BEFB01224FF446
:1024D8000071084805F0B8FB00224FF48041064817
:1024E80005F0B2FB01224FF40051034805F0ACFBA4
:1024F80000BF80BD000402420008024280B500AF60
:1025080001224FF40041024805F09EFB00BF80BD48
:102518000000024280B586B002AF03460A46FB714E
:102528001346BB71FB797E2118460CF013FC034659
:102538001A463E4B1A703D4B1B78112B01D00023D5
:102548006FE0FB79882118460CF04AFB4FF4FA70CB
:1025580000F0A2FCFB798A2118460CF041FB0A2006
:1025680000F09AFCF87940F223230093304B0022C4
:10257800A0210CF055FBF879632300932B4B002224
:1025880020210CF09BFB0023FB600EE0274AFB6830
:1025980013441A782649FB680B441B789A4201D0E9
:1025A80000233EE0FB680133FB60FB68632BEDDD35
:1025B800204ABB7982F82F30F879332300931D4BDA
:1025C80000224AF2C0310CF02BFBF8793323009338
:1025D800164B00224FF40F510CF070FB0023BB6028
:1025E8000EE0124ABB6813441A781249BB680B44C0
:1025F8001B789A4201D0002313E0BB680133BB600B
:10260800BB68332BEDDDFB798A2118460CF0E8FA1C
:10261800BB79012B04D1FB798C2118460CF0E0FA28
:10262800012318461037BD4680BD00BF04000020B6
:10263800380100200401002080B483B000AF786026
:10264800064B1B78DBB2002B02D1044B01221A7017
:1026580000BF0C37BD465DF8047B70472A08002090
:1026680080B400AF72B600BF00BFFDE780B582B08E
:1026780000AF0A4BD3F89430084A43F00403C2F879
:102688009430064BD3F8943003F004037B607B68E6
:1026980005F0E4FB00BF0837BD4680BD000C0246CC
:1026A80080B5BCB000AF786007F1DC0300221A6087
:1026B8005A609A60DA601A6107F11803C022002193
:1026C80018460CF073FB7B681B68674A934240F01E
:1026D800C7804FF400424FF00003C7E906234FF4C8
:1026E8008053C7F8BC3007F11803184606F03AFEC5
:1026F8000346002B01D0FFF7B3FF5C4BD3F88C30B7
:102708005A4A43F48063C2F88C30584BD3F88C3063
:1027180003F480637B617B69544BD3F88C30534A54
:1027280043F00403C2F88C30504BD3F88C3003F0DC
:1027380004033B613B694D4BD3F88C304B4A43F063
:102748000103C2F88C30494BD3F88C3003F00103F5
:10275800FB60FB68454BD3F88C30444A43F00203D6
:10276800C2F88C30414BD3F88C3003F00203BB60C5
:10277800BB683F23C7F8DC300323C7F8E0300023E9
:10278800C7F8E43007F1DC031946394804F086FF3E
:10279800CF23C7F8DC300323C7F8E0300023C7F89D
:1027A800E43007F1DC031946324804F077FF0723C9
:1027B800C7F8DC300323C7F8E0300023C7F8E4305B
:1027C80007F1DC0319462C4804F068FF2B4B2C4A10
:1027D8001A602A4B00225A60284B00229A60274B25
:1027E8000022DA60254B00221A61244B00225A612C
:1027F800224B01229A61214B4FF48032DA611F4B40
:1028080000221A621D4B01225A621C4B01229A6255
:102818001A4B0022DA62194B00221A63174B002266
:102828005A63164803F070FB0346002B01D0FFF7EC
:1028380017FF7B68114A1A67104A7B68D365102115
:102848000E4803F08DFE0346002B01D0FFF708FF6A
:1028580000220021252002F0D9FF252002F0F0FFF8
:1028680000BFF037BD4680BD00800242000C024622
:102878000008024200000242000402424C06002006
:102888005000024080B5BAB000AF786007F1D403B9
:1028980000221A605A609A60DA601A6107F1100320
:1028A800C022002118460CF081FA7B681B68254A73
:1028B800934243D1244A4FF00003C7E904234FF45D
:1028C8008053C7F8B4304FF40043C7F8B83007F165
:1028D8001003184606F046FD0346002B01D0FFF70B
:1028E800BFFE1A4BD3F89430184A43F04003C2F89D
:1028F8009430164BD3F8943003F04003FB60FB6828
:10290800124BD3F88C30114A43F00103C2F88C30D3
:102918000E4BD3F88C3003F00103BB60BB68302347
:10292800C7F8D4300323C7F8D8300023C7F8DC3001
:1029380007F1D4031946064804F0B0FE00BFE83793
:10294800BD4680BD0018024600800010000C0246FB
:102958000000024280B5BAB000AF786007F1D40336
:1029680000221A605A609A60DA601A6107F110034F
:10297800C022002118460CF019FA7B681B682F4A00
:10298800934257D14FF000624FF00003C7E9042388
:102998004FF08073C7F8943007F11003184606F01B
:1029A800E1FC0346002B01D0FFF75AFE244BD3F875
:1029B800A030234A43F40073C2F8A030204BD3F868
:1029C800A03003F40073FB60FB681D4BD3F88C3018
:1029D8001B4A43F00103C2F88C30194BD3F88C30F2
:1029E80003F00103BB60BB684FF4C053C7F8D43091
:1029F8000223C7F8D8300023C7F8DC300023C7F813
:102A0800E0300923C7F8E43007F1D40319460D482C
:102A180004F044FE00220521272002F0F7FE2720BB
:102A280002F00EFF00220521282002F0EFFE2820E8
:102A380002F006FF00BFE837BD4680BD00A4004095
:102A4800000C02460000024280B5BAB000AF7860C0
:102A580007F1D40300221A605A609A60DA601A619A
:102A680007F11003C022002118460CF09FF97B687B
:102A78001B682B4A93424FD14FF080724FF00003EE
:102A8800C7E904234FF48033C7F8C43007F11003B3
:102A9800184606F067FC0346002B01D0FFF7E0FD5F
:102AA800204BD3F89C301F4A43F48043C2F89C3033
:102AB8001C4BD3F89C3003F48043FB60FB68194B34
:102AC800D3F88C30174A43F00203C2F88C30154B08
:102AD800D3F88C3003F00203BB60BB684FF460434B
:102AE800C7F8D4300223C7F8D8300023C7F8DC3041
:102AF8000023C7F8E0300523C7F8E43007F1D40312
:102B08001946094804F0CAFD002200213C2002F0C1
:102B18007DFE3C2002F094FE00BFE837BD4680BD34
:102B280000380040000C02460004024280B400AFA6
:102B380000BFFDE780B400AF00BFFDE780B400AF81
:102B480000BFFDE780B400AF00BFFDE780B400AF71
:102B580000BFFDE780B400AF00BFBD465DF8047B51
:102B6800704780B400AF00BFBD465DF8047B704776
:102B780080B400AF00BFBD465DF8047B704780B5E8
:102B880000AF00F069F900BF80BD000080B500AF5C
:102B9800024804F0EBF900BF80BD00BF200400200C
:102BA80080B500AF4FF4807005F080F800BF80BD9D
:102BB80080B500AF4FF4007005F078F800BF80BD15
:102BC80080B500AF4FF4806005F070F800BF80BD9D
:102BD80080B500AF024803F062FB00BF80BD00BFB4
:102BE8004C06002080B500AF024801F0CDF800BFC8
:102BF80080BD00BFC005002080B500AF024804F0CA
:102C08004FFB00BF80BD00BFD806002080B500AFD5
:102C1800024804F045FB00BF80BD00BFD806002075
:102C280080B500AF024808F0DDFB00BF80BD00BFE3
:102C38002C05002080B500AF024808F0D3FB00BF88
:102C480080BD00BF3C07002080B400AF184BD3F80C
:102C58008830174A43F47003C2F88830154B0122B4
:102C68001A60144B0022DA61124B00221A62114BCF
:102C780000225A620F4B1B680E4A23F0A85323F414
:102C8800102313600B4B00229A620A4B1B68094AF7
:102C980023F480231360074B00221A65044B4FF07E
:102CA80000629A6000BFBD465DF8047B704700BFB4
:102CB80000ED00E0000C0246DFF834D0FFF7C4FF57
:102CC800002103E00B4B5B58435004310A480B4B7F
:102CD80042189A42F6D30A4A02E0002342F8043B1B
:102CE800084B9A42F9D30CF069F8FEF7B7FEFEE7F5
:102CF80000000C2008F100080000002065030020F7
:102D0800680300201C0E0020FEE7000080B500AF1D
:102D1800124B1B68114A43F480731360032002F0BE
:102D28006AFD06F079F902460D4B1B6A03F00F03A2
:102D38000C49CB5C22FA03F30B4A1360042002F01F
:102D4800BDFD0F2000F012F80346002B01D001232F
:102D580002E0FFF78BFC0023184680BD00200240EC
:102D6800000C024650EE00085C03002080B584B0D9
:102D780000AF78600023FB60334B1B78002B01D138
:102D880001235CE0314B1B6803F00403042B0CD1D6
:102D98002F4B1A682C4B1B7819464FF47A73B3FBE8
:102DA800F1F3B2FBF3F3FB6037E002F0DFFDB8604C
:102DB800BB68022B23D0BB68022B2DD8BB68002B25
:102DC80003D0BB68012B0DD026E0214B1A681E4B9F
:102DD8001B7819464FF4FA53B3FBF1F3B2FBF3F344
:102DE800FB601AE0184B1B781A464FF47A73B3FB52
:102DF800F2F34FF4FA42B2FBF3F3FB600DE0124B2F
:102E08001B781A464FF47A73B3FBF2F34FF400427F
:102E1800B2FBF3F3FB6000E000BFF86802F02CFDA2
:102E28000346002B01D0012309E0002279684FF006
:102E3800FF3002F0EBFC074A7B681360002318465A
:102E48001037BD4680BD00BF6403002010E000E0DD
:102E58005C0300206003002080B400AF064B1B78A1
:102E68001A46064B1B681344044A136000BFBD464C
:102E78005DF8047B704700BF6403002070080020E1
:102E880080B400AF034B1B681846BD465DF8047B51
:102E9800704700BF7008002080B584B000AF78602C
:102EA800FFF7EEFFB8607B68FB60FB68B3F1FF3F9C
:102EB80005D00A4B1B781A46FB681344FB6000BF19
:102EC800FFF7DEFF0246BB68D31AFA689A42F7D8C2
:102ED80000BF00BF1037BD4680BD00BF640300209F
:102EE80080B400AF044B1B681B0C9BB21846BD4650
:102EF8005DF8047B704700BF004004E080B483B0F5
:102F080000AF786039607B681B6823F470123B68F7
:102F18001A437B681A6000BF0C37BD465DF8047B16
:102F2800704780B483B000AF786039607B681B68F5
:102F380023F0E0723B681A437B681A6000BF0C37C5
:102F4800BD465DF8047B704780B483B000AF7860FD
:102F58007B681B6803F0E07318460C37BD465DF8C4
:102F6800047B704780B485B000AF786039603B68F7
:102F7800FB607B680A4A934204D1FB68013B03F07B
:102F88000C03FB607B68DB6823F00C02FB681A43C8
:102F98007B68DA6000BF1437BD465DF8047B704774
:102FA8000010024680B487B000AFF860B9607A605C
:102FB8003B60FB6860331A46BB689B0013447B6127
:102FC8007B691B6803F0E0627B685B0003F0784173
:102FD8003B680B431A437B691A6000BF1C37BD4628
:102FE8005DF8047B704780B485B000AF78603960C5
:102FF8007B6860331A463B689B001344FB60FB68A0
:103008001B68DB0E03F01F03BB60BB68092B07D8E6
:10301800BB689A060121BB6801FA03F3134308E071
:10302800BB689A060121BB6801FA03F3134343F016
:10303800007318461437BD465DF8047B704780B4AA
:1030480087B000AFF860B9607A60FB6860331A46F1
:10305800BB689B0013447B617B691B6823F080720B
:103068007B681A437B691A6000BF1C37BD465DF850
:10307800047B704780B487B000AFF860B9607A60AD
:10308800FB6860331A46BB689B0013447B617B690D
:103098001B6823F080627B681A437B691A6000BF53
:1030A8001C37BD465DF8047B704780B487B000AF1D
:1030B800F860B9607A60FB6860331A46BB689B00A9
:1030C80013447B617B691B6823F000727B681A4399
:1030D8007B691A6000BF1C37BD465DF8047B7047EA
:1030E80080B483B000AF786039607B681B6F23F4CD
:1030F8007F5323F03F033A681A437B681A677B685B
:103108001B6F23F000433A68002A02D04FF00042B8
:1031180000E000221A437B681A6700BF0C37BD46DF
:103128005DF8047B704780B485B000AFF860B96083
:103138007A60FB685A69BB6803F00403072101FA47
:1031480003F3DB431A40BB6803F00403796801FA10
:1031580003F31A43FB685A6100BF1437BD465DF894
:10316800047B704780B483B000AF78607B68DB680D
:1031780003F44063002B01D1012300E0002318462B
:103188000C37BD465DF8047B7047000080B489B0F9
:1031980000AFF860B9607A60FB682B4A934220D090
:1031A800FB6830331A46BB681B0A9B0003F00C030C
:1031B8001344FB61FB691A68BB6803F01F031F21F6
:1031C80001FA03F3DB431A407B689B0E03F01F01EF
:1031D800BB6803F01F0301FA03F31A43FB691A6083
:1031E8002BE0FB689A6ABB6803F01F030F2101FA02
:1031F80003F3DB431A407B6823F07F43002B04D1A1
:103208007B689B0E03F01F0310E07B687B617B6982
:1032180093FAA3F33B613B69BB61BB69002B01D106
:10322800202303E0BB69B3FA83F3DBB2B96801F08A
:103238001F018B401A43FB689A6200BF2437BD46C2
:103248005DF8047B704700BF0010024680B487B069
:1032580000AF786039603B6823F07F43002B07D1CB
:103268003B689B0E03F01F03012202FA03F315E0EB
:103278003B683B613B6993FAA3F3FB60FB687B61A6
:103288007B69002B01D1202303E07B69B3FA83F328
:10329800DBB203F01F03012202FA03F37A68926A91
:1032A8001A437B689A6200BF1C37BD465DF8047BF1
:1032B800704780B483B000AF786039607B689A6AE1
:1032C8003B689B0E03F01F03012101FA03F3DB4364
:1032D8001A407B689A6200BF0C37BD465DF8047BD4
:1032E800704780B483B000AF78607B68DB6803F018
:1032F800030318460C37BD465DF8047B704780B45D
:1033080083B000AF78607B68DB6C03F4C073002B7C
:1033180001D1012300E0002318460C37BD465DF8B3
:10332800047B704780B48BB000AFF860B9607A60F6
:10333800FB682D4A934242D0BB6823F07F43002BA1
:1033480004D1BB689B0E03F01F0211E0BB68BB6190
:10335800BB6993FAA3F37B617B69FB61FB69002B73
:1033680001D1202303E0FB69B3FA83F3DBB21A46E9
:10337800BB685B0E03F001010B469B000B445B002E
:10338800D21A13465B0013447B62FB6814331A4657
:10339800BB685B0E9B0003F0040313443B623B6A6B
:1033A8001A6807217B6A01FA03F3DB431A4079683C
:1033B8007B6A01FA03F31A433B6A1A600EE0FB6862
:1033C8005A69BB681B02DB431A40BB6819027B6859
:1033D8000B4023F0FF031A43FB685A6100BF2C37E8
:1033E800BD465DF8047B70470010024680B485B086
:1033F80000AFF860B9607A60FB68D3F8C020BB689A
:1034080023F07F43DB431A407B6803F01803084925
:10341800D940BB680B4023F07F431A43FB68C3F8CD
:10342800C02000BF1437BD465DF8047B704700BF5D
:10343800FFFF0F0080B483B000AF78607B689B68A3
:1034480023F0204323F03F037A68936000BF0C37D2
:10345800BD465DF8047B704780B483B000AF7860E8
:103468007B689B6803F00053B3F1005F01D101232F
:1034780000E0002318460C37BD465DF8047B704712
:1034880080B483B000AF78607B689B6823F01043FA
:1034980023F03F0343F080527B689A6000BF0C37EB
:1034A800BD465DF8047B704780B483B000AF786098
:1034B8007B689B6803F08053B3F1805F01D10123DF
:1034C80000E0002318460C37BD465DF8047B7047C2
:1034D80080B483B000AF78607B689B6823F00043BA
:1034E80023F03F0343F001027B689A6000BF0C376A
:1034F800BD465DF8047B704780B483B000AF786048
:103508007B689B6823F0004323F03F0343F00202EB
:103518007B689A6000BF0C37BD465DF8047B704736
:1035280080B483B000AF78607B689B6803F00103C8
:10353800012B01D1012300E0002318460C37BD46BA
:103548005DF8047B704780B483B000AF78607B6817
:103558009B6803F00203022B01D1012300E0002342
:1035680018460C37BD465DF8047B704780B483B0BD
:1035780000AF78607B689B6823F0004323F03F032B
:1035880043F004027B689A6000BF0C37BD465DF8C3
:10359800047B704780B483B000AF78607B689B6819
:1035A80003F00403042B01D1012300E00023184693
:1035B8000C37BD465DF8047B704780B483B000AF1C
:1035C80078607B689B6803F00803082B01D101230E
:1035D80000E0002318460C37BD465DF8047B7047B1
:1035E80080B58AB000AF7860002387F827300023C1
:1035F8003B620023FB617B68002B01D10123B3E20E
:103608007B681B69002B03D07B681B688B4A93423D
:103618007B689B6F002B09D17868FFF741F87B68BE
:103628000022DA677B68002283F874207B681B68B5
:103638001846FFF711FF0346002B04D07B681B6870
:103648001846FFF7F7FE7B681B681846FFF72CFF44
:103658000346002B15D17B681B681846FFF710FF3F
:10366800774B1B689B09774AA2FB03239B0901330D
:103678005B00FB6002E0FB68013BFB60FB68002B22
:10368800F9D17B681B681846FFF70EFF0346002B2D
:103698000ED17B689B6F43F010027B689A677B684A
:1036A800DB6F43F001027B68DA67012387F8273074
:1036B8007B681B681846FFF76DFFB8617B689B6FD6
:1036C80003F01003002B40F04482BB69002B40F04C
:1036D80040827B689B6F23F4817343F002027B680E
:1036E8009A677B681B681846FFF71AFF0346002B8A
:1036F80040D17B681B68514A934228D07B681B687D
:10370800514A934209D15048FFF70AFF0346002B5C
:103718000CBF01230023DBB208E04848FFF700FF95
:103728000346002B0CBF01230023DBB2002B21D062
:103738007B681B68444A934201D1444A00E0444AEA
:103748007B685B6819461046FFF7D8FB12E07B6878
:103758001A687B689B6819461046FFF703FC3C4BC8
:103768001B6823F470127B685B6803F47013384994
:1037780013430B607B681B68304A934210D07B6808
:1037880093F824305A037B685B6C1A437B689B6808
:103798001A437B6893F82C301B0413433B6230E0D8
:1037A8007B681B7F9A037B6893F824305B03134381
:1037B8007A68526C002A02D04FF4805200E000224E
:1037C8001A437B685B691A437B681B69002B04DA20
:1037D8007B681B6923F0004301E04FF400131A4390
:1037E8007B681B6818498B4203D17B6893F840308B
:1037F80003E07B6893F840305B0013433A6A134355
:103808003B627B6893F82C30012B2FD17B681B68B7
:103818000A4A934207D07B681B6B013B5B043A6AF8
:1038280013433B6222E07B6893F82430002B11D1CC
:103838003B6A43F480333B6218E000BF0010024645
:103848005C030020632D3E0500800242088302428B
:10385800081302467B689B6F43F020027B689A67D7
:103868007B68DB6F43F001027B68DA677B681B6863
:10387800924A934218D07B685B6B002B09D07B6817
:103888005B6B03F478727B689B6B13433A6A134350
:103898003B627B681B68DA68894B13407A68126858
:1038A800396A0B43D36031E07B685B6B002B09D02E
:1038B8007B685B6B03F4E0727B689B6B13433A6A2B
:1038C80013433B627B681B68DA687E4B13407A6857
:1038D8001268396A0B43D3607B681B6A002B08D0D7
:1038E8007B681B68596C7B681A6A7B681B680A438B
:1038F8005A647B68DB6E002B08D07B681B68596CA8
:103908007B68DA6E7B681B680A435A647B681B68AD
:103918006A4A934200F093807B681B681846FFF759
:1039280039FE78617B681B681846FFF746FE3861E8
:103938007B69002B61D13B69002B5ED17B681B7FC3
:103948009A037B681B6860498B4202D17B68DB6BFA
:1039580002E07B68DB6B5B0013433B627B681B68A0
:10396800DB6823F4804323F003037A681268396A1A
:103978000B43D3607B68DB68002B07D07B681A6831
:103988007B68DB6819461046FFF7AAFB7B6893F84B
:103998005430012B1ED17B685B6B002B7B681B6846
:1039A8001A694A4B13407A68926D11047A68D26D8D
:1039B80011437A68126E11437A68526E11437A681D
:1039C800926E92080A431A437B681B6842F0010210
:1039D8001A6107E07B681B681A697B681B6822F01C
:1039E80001021A617B681B681B6923F070417B68C0
:1039F8001A6D7B681B680A431A617B681B69012B77
:103A08000CD17B681B681B6B23F00F017B689B6ADA
:103A18005A1E7B681B680A431A6307E07B681B68A9
:103A28001A6B7B681B6822F00F021A637B689B6F16
:103A380023F0030343F001027B689A6792E07B68F6
:103A480093F85430012B11D17B689A6D7B68DB6D3C
:103A58001A437B681B6E1A437B689B6E1343FA6993
:103A68001343FB61FB6943F00103FB617B681B683F
:103A78001A69174B13407A681268F9690B43136186
:103A88007B6818687B689B6C1A460021FFF74BFB24
:103A98007B6818687B68DB6C1A466FF0FB01FFF7E0
:103AA80042FB7B681B69002B14D17B681B689A6AF0
:103AB8007B681B6862F00F029A6224E000100246DD
:103AC80013C0F0FF0D80DEFF008002421EF800FCEC
:103AD80002FCFFF77B681B69B3F5001F13D17B68F5
:103AE8001B689B6A7B689B6A013B9B0003F01C0375
:103AF8006FF00F0202FA03F17B68D3F888207B6825
:103B08001B680A439A627B681B68DA68184B134083
:103B18003A6A9A420BD17B680022DA677B689B6F0E
:103B280023F0030343F001027B689A671AE07B687D
:103B38009B6F23F0120343F010027B689A677B683F
:103B4800DB6F43F001027B68DA67012387F82730CF
:103B580008E07B689B6F43F010027B689A6701233B
:103B680087F8273097F8273018462837BD4680BD94
:103B7800F3FF3F8380B5A2B000AFF860B9607A6008
:103B8800FB681B681846FFF705FD0346002B40F04D
:103B9800E980FB6893F87430012B01D10223E6E039
:103BA800FB68012283F87420F86801F033FA0346B1
:103BB80087F8873097F88730002B40F0CE80FB6875
:103BC8009B6F23F4706323F0010343F48072FB6856
:103BD8009A67FB681B68684A934210D0FB689B6F22
:103BE80003F48053002B06D0FB68DB6F23F006023A
:103BF800FB68DA6706E0FB680022DA6702E0FB6828
:103C08000022DA67FB681B6F5C4A1A66FB681B6F49
:103C18005B4A5A66FB681B6F5A4A9A66FB681B68C0
:103C28001C221A60FB68002283F87420FB681B685A
:103C38005A68FB681B6842F010025A60FB681B68F0
:103C48004D4A934207D1FB681B68DA68FB681B681A
:103C580042F00102DA60FB681B6F1B6D03F0800302
:103C6800002B4FD0FB681B6F5B6F002B46D0FB68A7
:103C78001B6F5B6F1B68002B40D0FB681B6F5B6F73
:103C88001A6807F114031146184602F0DFFF0346CD
:103C9800002B01D001236AE0FB6A022B04D17B6868
:103CA8009B00C7F880300AE0FB6A012B04D17B68CF
:103CB8005B00C7F8803002E07B68C7F88030FB689B
:103CC8001B6F5B6F1B68D7F880209A60FB681B68C6
:103CD80003F14002FB681B6F5B6F1B68DA60FB68CF
:103CE8001B6F5B6F1B68BA681A61FB681B6F18460D
:103CF80002F018FF034687F8873028E0012387F889
:103D0800873024E0FB681B6F9B69022B04D17B681A
:103D18009B00C7F880300CE0FB681B6F9B69012B88
:103D280004D17B685B00C7F8803002E07B68C7F885
:103D38008030FB68186FFB681B6840331946BA6807
:103D4800D7F8803002F022FA034687F88730FB68FC
:103D58001B681846FFF70AFC07E0FB68002283F897
:103D6800742002E0022387F8873097F887301846D6
:103D78008837BD4680BD00BF00100246BB51000811
:103D880093520008AF52000880B588B000AF786041
:103D98000023FB617B681B681B68BB617B681B6831
:103DA8005B687B61BB6903F00203002B17D07B695A
:103DB80003F00203002B12D07B689B6F03F0100303
:103DC800002B05D17B689B6F43F400627B689A6780
:103DD800786801F035FC7B681B6802221A60BB69B1
:103DE80003F00403002B04D07B6903F00403002BC9
:103DF8000BD1BB6903F00803002B00F0A4807B699A
:103E080003F00803002B00F09E807B689B6F03F093
:103E18001003002B05D17B689B6F43F400727B680D
:103E28009A677B681B683D4A934247D07B681B684A
:103E38001846FFF797F90346002B7DD07B681B686F
:103E4800DB683B613B6903F40053002B74D17B684A
:103E58001B681B6803F00803082B6DD17B681B687F
:103E68001846FFF797FB0346002B1AD17B681B689F
:103E78005A687B681B6822F00C025A607B689B6F4B
:103E880023F480727B689A677B689B6F03F4805386
:103E9800002B51D17B689B6F43F001027B689A67C6
:103EA8004AE07B689B6F43F010027B689A677B68E7
:103EB800DB6F43F001027B68DA673DE07B681B68D3
:103EC8001846FFF74FF90346002B35D07B6893F867
:103ED8002430002B30D17B681B681B6803F0080373
:103EE800082B29D17B681B681846FFF753FB03464C
:103EF800002B15D17B681B685A687B681B6822F009
:103F08000C025A607B689B6F23F4807323F00103D3
:103F180043F001027B689A670EE000BF001002467A
:103F28007B689B6F43F020027B689A677B68DB6F36
:103F380043F001027B68DA677868FEF77DFB7B68EF
:103F48001B680C221A607B681B686D4A93426FD00D
:103F5800BB6903F02003002B04D07B6903F0200326
:103F6800002B09D1BB6903F04003002B60D07B69AB
:103F780003F04003002B5BD07B689B6F03F01003BA
:103F8800002B05D17B689B6F43F400527B689A67CE
:103F98007B681B681846FFF7B2F9F8607B681B68F6
:103FA8001846FFF7DFF8B8607B681B68DB683B6181
:103FB800FB68002B35D03B6903F00073002B07D05A
:103FC800BB68002B2DD03B6903F40053002B28D18C
:103FD8007B681B681B6803F04003402B21D17B687A
:103FE8001B681846FFF7E9FA0346002B19D17B68CE
:103FF8001B685A687B681B6822F060025A607B68FD
:104008009B6F23F480527B689A677B689B6F03F4ED
:104018008073002B05D17B689B6F43F001027B689E
:104028009A67786801F0EEFA7B681B6860221A606C
:10403800BB6903F08003002B11D07B6903F0800378
:10404800002B0CD07B689B6F43F480327B689A67A7
:10405800786800F0D5F87B681B6880221A60BB6915
:1040680003F48073002B12D07B6903F48073002B58
:104078000DD07B689B6F43F400327B689A67786841
:1040880001F0CAFA7B681B684FF480721A60BB693A
:1040980003F40073002B12D07B6903F40073002B28
:1040A8000DD07B689B6F43F480227B689A677868A1
:1040B80001F0BCFA7B681B684FF400721A60BB6998
:1040C80003F01003002B3DD07B6903F01003002B95
:1040D80038D07B685B6C002B02D10123FB611BE0AD
:1040E8007B681B68064A93420CD07B681B68DB68B8
:1040F80003F00303002B0FD00123FB610CE000BF8A
:10410800001002467B681B681846FFF7EAF803466A
:10411800002B01D00123FB61FB69012B0ED17B68C9
:104128009B6F43F480627B689A677B68DB6F43F020
:1041380002027B68DA67786800F06CF87B681B68B5
:1041480010221A60BB6903F00103002B1BD07B69A6
:1041580003F00103002B16D07B689B6F03F010035C
:10416800002B05D17B689B6F43F001027B689A673F
:10417800786800F06DF87B681B685A687B681B6874
:1041880022F001025A607B681B68174A934226D1C5
:10419800BB6903F40063002B0CD07B6903F4006354
:1041A800002B07D0786800F03FF87B681B684FF455
:1041B80000621A60BB6903F48053002B0FD07B693F
:1041C80003F48053002B0AD0786800F037F87B6836
:1041D8001B685A687B681B6822F480525A6000BFCB
:1041E8002037BD4680BD00BF0010024680B483B0B2
:1041F80000AF786000BF0C37BD465DF8047B7047A0
:1042080080B483B000AF786000BF0C37BD465DF85E
:10421800047B704780B483B000AF786000BF0C3770
:10422800BD465DF8047B704780B483B000AF78600A
:1042380000BF0C37BD465DF8047B704780B483B07F
:1042480000AF786000BF0C37BD465DF8047B70474F
:1042580080B483B000AF786000BF0C37BD465DF80E
:10426800047B704780B5BCB000AF7860396000232C
:1042780087F8EF300023BB607B681B68A84A93422D
:1042880003D17B681B69B3F1004F7B6893F87430E6
:10429800012B02D1022300F0B5BE7B68012283F80E
:1042A80074207B681B681846FFF774F90346002BD7
:1042B80040F095867B681B68994A934200F0EA8330
:1042C8003B681B6823F07F43002B08D13B681B68C1
:1042D8009B0E03F01F03012202FA03F31DE03B6863
:1042E8001B68C7F8D030D7F8D03093FAA3F3C7F8D3
:1042F800CC30D7F8CC30C7F8D430D7F8D430002B2E
:1043080001D1202304E0D7F8D430B3FA83F3DBB229
:1043180003F01F03012202FA03F37A681268D169D5
:104328007A6812680B43D3617B6818683B685968E0
:104338003B681B681A46FEF729FF7B681B6818460E
:10434800FFF728F9C7F8E0007B681B681846FFF7F5
:1043580034F9C7F8DC00D7F8E030002B40F0ED81E5
:10436800D7F8DC30002B40F0E8817B6818683B68A0
:1043780019683B689B681A46FEF7D4FF3B685A6980
:104388007B681B68DB689B0803F003035B0002FA89
:1043980003F3C7F8D8303B681B69042B46D07B6809
:1043A80018683B6819693B681A68D7F8D830FEF76F
:1043B800F9FD7B6818683B6819693B68DB691A4630
:1043C800FEF73DFE3B689B7E012B1ED17B6818687B
:1043D8003B6819693B685B7E002B02D14FF0007384
:1043E80000E000231A46FEF760FE7B6818683B6809
:1043F80019693B685B7E012B02D14FF0806300E0B6
:1044080000231A46FEF736FE97E17B6818683B687A
:104418001B6900221946FEF748FE7B6818683B684E
:104428001B6900221946FEF725FE86E17B681B689A
:1044380000211846FEF7D7FD034623F07F43002BE3
:104448000AD17B681B6800211846FEF7CCFD03469D
:104458009B0E03F01F021EE07B681B6800211846B4
:10446800FEF7C1FD0346C7F8C430D7F8C43093FA45
:10447800A3F3C7F8C030D7F8C030C7F8C830D7F8AA
:10448800C830002B01D1202304E0D7F8C830B3FA94
:1044980083F3DBB21A463B681B6823F07F43002B8B
:1044A80005D13B681B689B0E03F01F0318E03B68AF
:1044B8001B68C7F8B830D7F8B83093FAA3F3C7F831
:1044C800B430D7F8B430C7F8BC30D7F8BC30002BBC
:1044D80001D1202304E0D7F8BC30B3FA83F3DBB270
:1044E8009A4207D17B6818683B681A680023002144
:1044F800FEF758FD7B681B6801211846FEF773FD1F
:10450800034623F07F43002B0CD17B681B680121F5
:104518001846FEF768FD03469B0E03F01F0220E0D5
:10452800001002467B681B6801211846FEF75BFDF8
:104538000346C7F8AC30D7F8AC3093FAA3F3C7F802
:10454800A830D7F8A830C7F8B030D7F8B030002B6B
:1045580001D1202304E0D7F8B030B3FA83F3DBB2FB
:104568001A463B681B6823F07F43002B05D13B6844
:104578001B689B0E03F01F0318E03B681B68C7F815
:10458800A030D7F8A03093FAA3F3C7F89C30D7F837
:104598009C30C7F8A430D7F8A430002B01D12023D1
:1045A80004E0D7F8A430B3FA83F3DBB29A4207D118
:1045B8007B6818683B681A6800230121FEF7F2FC43
:1045C8007B681B6802211846FEF70DFD034623F0A1
:1045D8007F43002B0AD17B681B6802211846FEF72F
:1045E80002FD03469B0E03F01F021EE07B681B685A
:1045F80002211846FEF7F7FC0346C7F89430D7F8AF
:10460800943093FAA3F3C7F89030D7F89030C7F8EE
:104618009830D7F89830002B01D1202304E0D7F840
:104628009830B3FA83F3DBB21A463B681B6823F071
:104638007F43002B05D13B681B689B0E03F01F03CB
:1046480018E03B681B68C7F88830D7F8883093FAB9
:10465800A3F3C7F88430D7F88430C7F88C30D7F87C
:104668008C30002B01D1202304E0D7F88C30B3FA2A
:1046780083F3DBB29A4207D17B6818683B681A68F3
:1046880000230221FEF78EFC7B681B680321184675
:10469800FEF7A9FC034623F07F43002B0AD17B6871
:1046A8001B6803211846FEF79EFC03469B0E03F089
:1046B8001F021AE07B681B6803211846FEF793FC6B
:1046C8000346FB67FB6F93FAA3F3BB67BB6FC7F89F
:1046D8008030D7F88030002B01D1202304E0D7F8B0
:1046E8008030B3FA83F3DBB21A463B681B6823F0C9
:1046F8007F43002B05D13B681B689B0E03F01F030B
:1047080011E03B681B683B673B6F93FAA3F3FB66BA
:10471800FB6E7B677B6F002B01D1202303E07B6F4F
:10472800B3FA83F3DBB29A4207D17B6818683B6817
:104738001A6800230321FEF735FC7B681B681846BE
:10474800FEF7EEFE0346002B40F056847B6818689F
:104758003B6819683B68DB681A46FEF747FE3B680A
:10476800DB6813F5803F40F0D6803B681B6823F078
:104778007F43002B0BD13B681B689B0E013303F072
:104788001F03092B94BF01230023DBB219E03B6808
:104798001B687B667B6E93FAA3F33B663B6EBB6636
:1047A800BB6E002B01D1202303E0BB6EB3FA83F369
:1047B800DBB2013303F01F03092B94BF012300234D
:1047C800DBB2002B4DD03B681B6823F07F43002BE6
:1047D80007D13B681B689B0E01339B0603F0F84228
:1047E80015E03B681B68BB65BB6D93FAA3F37B655B
:1047F8007B6DFB65FB6D002B01D1202303E0FB6D76
:10480800B3FA83F3DBB201339B0603F0F8423B684B
:104818001B6823F07F43002B09D13B681B689B0E64
:10482800013303F01F03012101FA03F317E03B688A
:104838001B68FB64FB6C93FAA3F3BB64BB6C3B651E
:104848003B6D002B01D1202303E03B6DB3FA83F3CA
:10485800DBB2013303F01F03012101FA03F3134311
:104868004EE03B681B6823F07F43002B07D13B6871
:104878001B689B0E01339B0603F0F84215E03B686A
:104888001B683B643B6C93FAA3F3FB63FB6B7B6491
:104898007B6C002B01D1202303E07B6CB3FA83F3FC
:1048A800DBB201339B0603F0F8423B681B6823F038
:1048B8007F43002B09D13B681B689B0E013303F033
:1048C8001F03012101FA03F317E03B681B687B63B0
:1048D8007B6B93FAA3F33B633B6BBB63BB6B002B14
:1048E80001D1202303E0BB6BB3FA83F3DBB20133BE
:1048F80003F01F03012101FA03F3134343F000738C
:10490800C7F8E8307B6818683B689B681A46D7F890
:10491800E810FEF707FD3B681B68002B80F26C83EC
:104928007B681B68974A934201D1974B00E0974BED
:104938001846FEF709FBC7F8E4007B681B68914A34
:10494800934209D18F48FEF7EBFD0346002B0CBFBD
:1049580001230023DBB208E08D48FEF7E1FD0346A2
:10496800002B0CBF01230023DBB2002B00F0888052
:104978003B681B68874A934232D1D7F8E43003F486
:104988000003002B2CD17B681B687E4A934205D01C
:104998007B681B687E4A934240F02B837B681B68C8
:1049A800784A934201D1784A00E0784AD7F8E4304F
:1049B80043F4000319461046FEF7B3FA764B1B681A
:1049C8009B09764AA2FB03239B0901335B00BB606A
:1049D80002E0BB68013BBB60BB68002BF9D108E370
:1049E8003B681B686E4A934221D1D7F8E43003F044
:1049F8008073002B1BD17B681B68624A934205D0E9
:104A08007B681B68624A934240F0F5827B681B68AA
:104A18005C4A934201D15C4A00E05C4AD7F8E43032
:104A280043F0807319461046FEF77BFAE3E23B68D1
:104A38001B685C4A934240F0DF82D7F8E43003F405
:104A48008003002B40F0D8827B681B684D4A934254
:104A580005D07B681B684E4A934240F0CD827B6844
:104A68001B68484A934201D1474A00E0474AD7F8B1
:104A7800E43043F4800319461046FEF752FABBE2CD
:104A88007B689B6F43F020027B689A67012387F855
:104A9800EF30B1E23B681B68C7F8E830FEF720FA50
:104AA8000346B3F5805F30D13B681B683E4A9342AA
:104AB80003D13E4BC7F8E83027E03B681B683C4A07
:104AC800934203D13B4BC7F8E8301EE03B681B68B4
:104AD800394A934203D1394BC7F8E83015E03B68AF
:104AE8001B68374A934203D1364BC7F8E8300CE0CD
:104AF8003B681B68344A934203D1314BC7F8E8300E
:104B080003E03B681B68C7F8E8303B685B68022B2A
:104B180000F0A2817B681B69B3F1004F04D07B6869
:104B28001B692A4A934207D17B681B68D7F8E810AB
:104B38001846FEF78BFBC1E07B68D3F888203B68FA
:104B48005B6803F01F030F2101FA03F3DB431A40EC
:104B5800D7F8E83023F07F43002B05D1D7F8E830A9
:104B68009B0E03F01F0337E0D7F8E830BB62BB6A3F
:104B780093FAA3F37B627B6AFB62FB6A002B27D163
:104B8800202329E0008002420883024208130246DB
:104B980000100246000008CE5C030020632D3E058D
:104BA800000004CA01000080002000B6000040DABE
:104BB800004000BA000080DE001000B20100008151
:104BC800000020D6000010D2000020D7100000807E
:104BD800FB6AB3FA83F3DBB23968496801F01F0155
:104BE8008B401A437B68C3F888203B685B689B0846
:104BF8005A1C7B689B6A9A4260D8FEF771F9034693
:104C0800B3F5805F51D8D7F8E83023F07F43002B05
:104C18000AD1D7F8E8309B0E03F01F03132B8CBF83
:104C280001230023DBB216E0D7F8E830FB61FB690B
:104C380093FAA3F3BB61BB693B623B6A002B01D1CA
:104C4800202303E03B6AB3FA83F3DBB2132B8CBF58
:104C580001230023DBB2002B27D0D7F8E83023F05C
:104C68007F43002B09D1D7F8E8309B0E03F01F03D0
:104C7800093B012202FA03F315E0D7F8E8303B615B
:104C88003B6993FAA3F3FB60FB687B617B69002BAC
:104C980001D1202303E07B69B3FA83F3DBB2093B3C
:104CA800012202FA03F3C7F8E8307B6818683B680A
:104CB8005B68D7F8E8201946FEF768FA7B68186839
:104CC8003B689B681A46D7F8E810FEF72BFB3B6851
:104CD8001B68002B80F290817B681B68974A93427F
:104CE80001D1974B00E0974B1846FEF72DF9C7F80E
:104CF800E4003B681B68944A934226D1D7F8E43015
:104D080003F40003002B20D17B681B688B4A934275
:104D180001D18B4A00E08B4AD7F8E43043F4000312
:104D280019461046FEF7FDF8884B1B689B09884A10
:104D3800A2FB03239B095B00BB6002E0BB68013B4D
:104D4800BB60BB68002BF9D167E03B681B68814AF0
:104D5800934216D1D7F8E43003F08073002B10D1BA
:104D68007B681B68754A934201D1754A00E0754A11
:104D7800D7F8E43043F0807319461046FEF7D1F8AF
:104D88004BE03B681B68744A934216D1D7F8E4306D
:104D980003F48003002B10D17B681B68674A934299
:104DA80001D1674A00E0674AD7F8E43043F480034A
:104DB80019461046FEF7B5F82FE03B681B68674AAE
:104DC80093422AD1D7F8E43003F48003002B24D18E
:104DD8007B681B68624A93421FD17B681B68574AED
:104DE800934201D1564A00E0564AD7F8E43043F4DA
:104DF800800319461046FEF794F8FEF771F803464B
:104E0800B3F5805F09D87B681B68D3F8D0207B682E
:104E18001B6842F00102C3F8D020FEF761F8034690
:104E2800B3F5005F40F0E8803B681B684D4A934249
:104E380040F0E280D7F8E43003F48003002B40F020
:104E4800DB807B681B68D3F8D0207B681B6842F046
:104E58000102C3F8D020CFE07B681B69B3F1004F93
:104E680004D07B681B69404A934206D17B681B6863
:104E7800D7F8E8101846FEF71CFA3B681B68002BA9
:104E880080F2BA807B681B682C4A934201D12C4B74
:104E980000E02C4B1846FEF757F8C7F8E4003B68CB
:104EA8001B68324A934210D17B681B68234A93429D
:104EB80001D1234A00E0234AD7F8E43023F4000361
:104EC80019461046FEF72DF86DE03B681B68284A26
:104ED800934210D17B681B68184A934201D1184A43
:104EE80000E0184AD7F8E43023F0807319461046DA
:104EF800FEF717F857E03B681B68174A934210D132
:104F08007B681B680D4A934201D10D4A00E00D4AA7
:104F1800D7F8E43023F4800319461046FEF701F869
:104F280041E03B681B680D4A93423CD17B681B6893
:104F3800024A93421ED1024A1DE000BF008002428D
:104F48000883024208130246002000B65C030020D2
:104F5800632D3E05004000BA01000080001000B239
:104F680000100246000020D710000080000008CE84
:104F7800000004CA254AD7F8E43023F48003194610
:104F88001046FDF7CEFFFDF7ABFF0346B3F5805F94
:104F980009D87B681B68D3F8D0207B681B6842F06F
:104FA8000102C3F8D020FDF79BFF0346B3F5005F6D
:104FB80022D13B681B68164A93421DD1D7F8E430CA
:104FC80003F48003002B17D17B681B68D3F8D0202B
:104FD8007B681B6842F00102C3F8D0200CE07B68B4
:104FE8009B6F43F020027B689A67012387F8EF30B4
:104FF80002E000BF00E000BF7B68002283F8742055
:1050080097F8EF301846F037BD4680BD08130246C2
:10501800000020D780B584B000AF78607B681B683B
:105028001846FEF77DFA0346002B5AD17B681B68A9
:105038009A682E4B1340002B0DD07B689B6F43F072
:1050480010027B689A677B68DB6F43F001027B681C
:10505800DA67012346E07B681B6801221A607B68D7
:105068001B681846FEF734FA7B681B6A002B04D0CD
:105078007B681B681E4A934233D0FDF701FFF86036
:1050880028E07B681B681846FEF74AFA0346002B9F
:1050980004D17B681B681846FEF71AFAFDF7F0FE84
:1050A8000246FB68D31A022B14D97B681B681B685D
:1050B80003F00103012B0DD07B689B6F43F01002B6
:1050C8007B689A677B68DB6F43F001027B68DA676D
:1050D800012307E07B681B681B6803F00103012BB1
:1050E800CFD1002318461037BD4680BD3F00008051
:1050F8000010024680B584B000AF78607B681B68FA
:105108001846FEF720FAF8607B681B681846FEF719
:1051180007FA0346002B47D0FB68002B44D17B6875
:105128001B689B6803F00D03012B0CD17B681B687F
:105138001846FEF7E1F97B681B6803221A60FDF741
:105148009FFEB86029E07B689B6F43F010027B6884
:105158009A677B68DB6F43F001027B68DA6701239B
:1051680023E0FDF78DFE0246BB68D31A022B14D943
:105178007B681B689B6803F00103002B0DD07B68DC
:105188009B6F43F010027B689A677B68DB6F43F084
:1051980001027B68DA67012307E07B681B689B686C
:1051A80003F00103002BDCD1002318461037BD465D
:1051B80080BD80B584B000AF78607B68DB6DFB6034
:1051C800FB689B6F03F05003002B4BD1FB689B6F70
:1051D80043F40072FB689A67FB681B681B6803F05E
:1051E8000803002B21D0FB681B681846FDF7BAFF9F
:1051F8000346002B32D0FB681B68DB6803F40053BE
:10520800002B2BD1FB689B6F23F48072FB689A6795
:10521800FB689B6F03F48053002B1FD1FB689B6FC7
:1052280043F00102FB689A6718E0FB681B68DB68BB
:1052380003F00303002B11D1FB689B6F23F48072EA
:10524800FB689A67FB689B6F03F48053002B05D1BA
:10525800FB689B6F43F00102FB689A67F868FDF7EB
:10526800EBF90EE0FB689B6F03F01003002B03D0F3
:10527800F868FEF7CFFF04E0FB681B6F9B6E786849
:10528800984700BF1037BD4680BD80B584B000AFD9
:1052980078607B68DB6DFB60F868FEF7A7FF00BFEE
:1052A8001037BD4680BD80B584B000AF78607B689C
:1052B800DB6DFB60FB689B6F43F04002FB689A67FD
:1052C800FB68DB6F43F00402FB68DA67F868FEF7F7
:1052D800A1FF00BF1037BD4680BD000080B483B079
:1052E80000AF786039607B680F4A93420CD07B68C6
:1052F8009A680E4B13403A6802F48032134343F025
:1053080000427B689A6009E07B689B6823F0004351
:1053180023F03F0343F000427B689A6000BF0C37DC
:10532800BD465DF8047B704700100246C0FFFE7F53
:1053380080B483B000AF78607B689B6803F000435B
:10534800B3F1004F01D1012300E0002318460C37C8
:10535800BD465DF8047B704780B58AB000AFF86041
:10536800B9607A6000233B61FB6893F87430012BC5
:1053780001D1022338E1FB68012283F87420F86820
:10538800FFF7B8FE034687F8273097F82730002B39
:1053980040F01E81FB689B6F23F4885323F00203BF
:1053A80043F00202FB689A67FB681B68904A9342C5
:1053B80050D1FB681B685B6C03F00103BB61FB68A1
:1053C8001B68DB6803F003037B61FB681B68DA6812
:1053D800FB681B6822F00302DA60FB681B685A6CE2
:1053E800FB681B6822F001025A64FB681B680021F5
:1053F8001846FFF773FF14E03B6901333B613B69D3
:105408007C4A93420DD9FB689B6F23F0120343F04B
:105418001002FB689A67FB68002283F87420012356
:10542800E2E0FB681B681846FFF782FF0346002B83
:10543800E2D1FB681B68D968FB681B687A690A4374
:10544800DA60FB681B68596CFB681B68BA690A4319
:105458005A64B4E0684B1B68C3F30B033B62664BAA
:105468001B681B0C9BB2FB613B6A40F2554293429E
:1054780012D03B6A40F2764293420DD03B6A40F22A
:105488008142934204D03B6A40F28242934272D1F5
:10549800FB69B3F5405F6ED3F868FFF7BBFD0346C1
:1054A80087F8273097F82730002B40F08880FB6872
:1054B8001B689B6823F07062FB681B6842F01062EF
:1054C8009A60BFF35F8F00BFFB681B68D3F8C830D2
:1054D800D9B2FB681A68494B0B43C2F8C830BFF30E
:1054E8005F8F00BFFB681B68D3F8C420FB681B688C
:1054F80042F08072C3F8C420F868FFF7FBFD03464A
:1055080087F82730BB68B3F1011F09D1FB681B6816
:105518009A683B4B1340FA68126843F480339360EF
:10552800FB681B689B6823F0004323F03F03FA687D
:10553800126843F00043936014E03B6901333B6118
:105548003B692C4A93420DD9FB689B6F23F01203E9
:1055580043F01002FB689A67FB68002283F8742006
:10556800012341E0FB681B681846FFF7E1FE03468C
:10557800002BE2D123E0FB681B68B9681846FFF7E7
:10558800ADFE14E03B6901333B613B69194A934224
:105598000DD9FB689B6F23F0120343F01002FB68E0
:1055A8009A67FB68002283F8742001231CE0FB68DB
:1055B8001B681846FFF7BCFE0346002BE2D1FB68C8
:1055C8009B6F23F0030343F00102FB689A6705E031
:1055D800FB689B6F43F01002FB689A67FB68002228
:1055E80083F8742097F8273018462837BD4680BDC1
:1055F800001002467F6B2B02004004E000110203FA
:10560800C0FFFE7F80B483B000AF786000BF0C3766
:10561800BD465DF8047B704780B483B000AF786006
:1056280000BF0C37BD465DF8047B704780B483B07B
:1056380000AF786000BF0C37BD465DF8047B70474B
:1056480080B483B000AF786000BF0C37BD465DF80A
:10565800047B704780B485B000AF78607B6803F046
:105668000703FB600C4BDB68BB60BA684FF6FF03AF
:105678001340BB60FB681A02BB68134343F0BF6367
:1056880043F40033BB60044ABB68D36000BF1437DF
:10569800BD465DF8047B704700ED00E080B400AFC4
:1056A800044BDB681B0A03F007031846BD465DF888
:1056B800047B704700ED00E080B483B000AF034680
:1056C800FB7197F90730002B0BDBFB7903F01F0206
:1056D800074997F907305B09012000FA02F241F8FF
:1056E800232000BF0C37BD465DF8047B704700BF20
:1056F80000E100E080B483B000AF0346FB7197F986
:105708000730002B12DBFB7903F01F020A4997F9D7
:1057180007305B09012000FA02F2203341F8232008
:10572800BFF34F8F00BFBFF36F8F00BF00BF0C37B1
:10573800BD465DF8047B704700E100E080B483B0AB
:1057480000AF03463960FB7197F90730002B0ADB7D
:105758003B68DAB20C4997F907301201D2B20B4410
:1057680083F800230AE03B68DAB20849FB7903F0C2
:105778000F03043B1201D2B20B441A7600BF0C3758
:10578800BD465DF8047B704700E100E000ED00E0F5
:1057980080B489B000AFF860B9607A60FB6803F044
:1057A8000703FB61FB69C3F10703042B28BF04232C
:1057B800BB61FB690433062B02D9FB69033B00E09C
:1057C80000237B614FF0FF32BB6902FA03F3DA432F
:1057D800BB681A407B699A404FF0FF317B6901FA38
:1057E80003F3D9437B680B40134318462437BD465F
:1057F8005DF8047B704780B582B000AF7860786848
:10580800FFF728FF00BF0837BD4680BD80B586B0CA
:1058180000AF0346B9607A60FB73FFF73FFF78611A
:105828007A68B9687869FFF7B3FF024697F90F30CD
:1058380011461846FFF782FF00BF1837BD4680BDE6
:1058480080B582B000AF0346FB7197F90730184660
:10585800FFF732FF00BF0837BD4680BD80B582B074
:1058680000AF0346FB7197F907301846FFF742FF70
:1058780000BF0837BD4680BD80B483B000AF7860F4
:105888007B68013BB3F1807F01D301230DE00A4A15
:105898007B68013B5360084B00229A60064B1B68EB
:1058A800054A43F003031360002318460C37BD462E
:1058B8005DF8047B704700BF10E000E080B483B05F
:1058C80000AF78607B68042B44D801A252F823F01B
:1058D800FB580008195900083B5900085D59000891
:1058E800ED5800081F4B1B681E4A43F00403136061
:1058F80031E01C4B1B681B4A23F0040313601A4B4E
:10590800D3F8E030184A23F44003C2F8E03022E02C
:10591800144B1B68134A23F004031360124BD3F88B
:10592800E03023F44003104A43F48003C2F8E03027
:1059380011E00C4B1B680B4A23F0040313600A4B5D
:10594800D3F8E03023F44003074A43F40003C2F8D5
:10595800E03000E000BF00BF0C37BD465DF8047BB7
:10596800704700BF10E000E0000C024680B483B02E
:1059780000AF194B1B6803F00403002B02D004236B
:105988007B6021E0154BD3F8E03003F440033B6023
:105998003B68B3F5000F11D03B68B3F5000F10D882
:1059A8003B68002B04D03B68B3F5800F03D008E0B8
:1059B80000237B6008E001237B6005E002237B6015
:1059C80002E000237B6000BF7B6818460C37BD46A9
:1059D8005DF8047B704700BF10E000E0000C024651
:1059E80080B582B000AF78607B68002B01D10123BD
:1059F80014E07B681B79DBB2002B05D17B680022A1
:105A08005A717868FCF73EFF7B6802221A717B683E
:105A180000221A617B6801221A7100231846083790
:105A2800BD4680BD80B485B000AF786039607B68C2
:105A3800002B01D1012356E07B685B79012B01D152
:105A4800022350E07B6801225A717B6802221A7196
:105A58007B681B6819683B6803F0100301229A40B1
:105A68007B681B680A431A60224B1B689B09224A01
:105A7800A2FB03239B090133FB6002E0FB68013BA7
:105A8800FB60FB68002BF9D13B68002B0FD17B68CA
:105A98001B681B6803F03E03022B1DD17B681B6843
:105AA8005A687B681B6842F001025A6014E07B6800
:105AB8001B681B6803F478123B6803F0100302218B
:105AC80001FA03F39A4207D17B681B685A687B681E
