:020000040800F2
:1000000000000C20AD170008291600083116000862
:10001000391600084116000849160008FD170008A7
:100020000000000000000000000000005116000861
:100030005F160008000000006D1600087B1600081F
:10004000FD170008FD170008FD170008FD17000840
:10005000FD170008FD170008FD170008FD17000830
:10006000FD170008FD170008FD170008FD17000820
:10007000FD170008FD170008FD170008FD17000810
:10008000FD17000887160008FD17000895160008E0
:10009000A5160008B5160008FD170008FD17000892
:1000A000FD170008FD170008FD170008FD170008E0
:1000B00000000000C5160008FD170008FD17000825
:1000C000FD170008FD170008FD170008FD170008C0
:1000D000FD170008D9160008FD170008ED160008E6
:1000E00001170008FD170008FD170008FD1700089C
:1000F000FD170008FD170008FD170008FD17000890
:10010000FD170008FD170008FD170008FD1700087F
:10011000FD170008FD170008FD170008FD1700086F
:10012000FD170008FD170008FD1700081517000847
:1001300029170008FD170008FD170008FD17000823
:10014000FD170008FD170008FD170008FD1700083F
:10015000FD170008FD170008FD170008FD1700082F
:10016000FD170008FD170008FD170008FD1700081F
:10017000FD170008FD170008FD170008FD1700080F
:10018000FD170008FD170008FD170008FD170008FF
:10019000FD170008FD170008FD170008FD170008EF
:1001A000FD170008FD170008FD170008FD170008DF
:1001B000FD17000800000000FD170008FD170008EB
:1001C000FD17000800000000FD170008FD170008DB
:1001D000FD170008FD170008FD170008FD170008AF
:1001E000FD170008FD170008FD170008FD1700089F
:1001F0000000000000000000FD170008FD170008C7
:10020000FD170008FD170008FD170008FD1700087E
:10021000FD170008FD170008FD170008FD1700086E
:10022000FD170008FD170008FD170008FD1700085E
:08023000FD170008FD1700088E
:1002380010B5054C237833B9044B13B10448AFF318
:1002480000800123237010BD64030020000000001B
:1002580094A4000808B5034B1BB103490348AFF346
:10026800008008BD000000006803002094A4000876
:1002780080B582B000AF01F0BFFA00F0F3F800F0EB
:1002880053FC00F045FB00F0FDFA00F049F900F0DE
:100298009FFA00F0D9FB00F05BFB00F065FB012240
:1002A8004FF400615E4806F095F800F095FD00F007
:1002B800B3FD0021012000F0BBFD03461A46594B4F
:1002C8001A700021022000F0B3FD03461A46564B6F
:1002D8001A700021032000F0ABFD03461A46534B69
:1002E8001A700021524804F0E1F81021504804F037
:1002F800DDF8504B7C221A804F4B7C221A804D4BE4
:100308001B88002200214A4804F03CF94A4B1B880C
:1003180000221021464804F035F94FF6FF724FF0DD
:100328000111464803F08EFD0F224549434802F06B
:1003380097F900224FF40061394806F04BF800F0B5
:1003480009FE404B1B78DBB2002B37D03E4B1B78A5
:10035800002B33D03D4B1B78002B2FD03C4B1B7808
:10036800002B2BD000237B600BE0354A7B6832F8EA
:10037800133099B2374A7B6822F813107B6801332F
:100388007B607B680E2BF0DD334B01221A70334BF8
:1003980001221A702B4B00221A702D4B00221A7062
:1003A8002B4B1A78294B1A70284B1A78264B1A703F
:1003B8000F222349214802F053F921E0214B1B78F1
:1003C800DBB2002B1CD000233B600BE01C4A3B68CF
:1003D80032F8133099B21F4A3B6822F813103B6871
:1003E80001333B603B680E2BF0DD1C4B01221A7079
:1003F800144B00221A700F221149104802F030F9EC
:10040800174B1B78002B9CD000F0B8FD144B002232
:100418001A704FF40061024805F0F4FF91E700BF3D
:1004280000080242660600206706002068060020D1
:10043800840400201C0600201E06002080030020E3
:1004480024060020620600206306002064060020BF
:100458006506002044060020210600202006002012
:100468002206002080B59EB000AF07F11803602275
:100478000021184609F0DEFF3B4600221A605A6048
:100488009A60DA601A615A614FF4003006F016F883
:100498000346002B01D000F003FE0923BB614FF493
:1004A8008033FB614FF08063FB6200233B630223D0
:1004B8003B6503237B650023FB650323BB65202382
:1004C8003B6602237B660223BB660223FB6600238E
:1004D8003B6700237B6707F11803184606F08AF884
:1004E8000346002B01D000F0DBFD1F233B600323F4
:1004F8007B600023BB600023FB6000233B6100237B
:100508007B613B460221184606F050FF0346002B4C
:1005180001D000F0C5FD00BF7837BD4680BD0000A2
:1005280080B588B000AF3B4620220021184609F06C
:1005380081FF964B964A1A60944B4FF480225A607A
:10054800924B00229A60914B0022DA608F4B012275
:100558001A618E4B08229A618C4B01221A778B4BB9
:10056800002283F82420894B0F229A62874B0022AD
:1005780083F82C20854B00225A63844B00229A630F
:10058800824B002283F84020804B00229A667F4BE2
:1005980000225A647D4B00221A657C4B0122DA63E3
:1005A8007A4B002283F85420784801F08FFD0346E7
:1005B800002B01D000F074FD764B3B6006237B6076
:1005C8000023BB604FF6FF73FB6004233B610023ED
:1005D8007B613B4619466D4802F0BAFB0346002B87
:1005E80001D000F05DFD6C4B3B600C237B603B460B
:1005F8001946664802F0ACFB0346002B01D000F018
:100608004FFD664B3B6012237B603B4619465F48B3
:1006180002F09EFB0346002B01D000F041FD604B29
:100628003B6018237B603B461946584802F090FB14
:100638000346002B01D000F033FD5A4B3B604FF4CA
:1006480080737B603B461946504802F081FB0346A5
:10065800002B01D000F024FD534B3B604FF4837313
:100668007B603B461946494802F072FB0346002B63
:1006780001D000F015FD4D4B3B604FF486737B6055
:100688003B461946414802F063FB0346002B01D064
:1006980000F006FD464B3B604FF489737B603B4698
:1006A80019463A4802F054FB0346002B01D000F0EB
:1006B800F7FC404B3B604FF48C737B603B4619461C
:1006C800324802F045FB0346002B01D000F0E8FC5D
:1006D800394B3B604FF400737B603B4619462B480F
:1006E80002F036FB0346002B01D000F0D9FC334B57
:1006F8003B6040F206237B603B461946234802F0E4
:1007080027FB0346002B01D000F0CAFC2C4B3B60B2
:100718004FF403737B603B4619461C4802F018FBF4
:100728000346002B01D000F0BBFC264B3B6040F297
:1007380012237B603B461946144802F009FB034626
:10074800002B01D000F0ACFC1F4B3B604FF406734C
:100758007B603B4619460D4802F0FAFA0346002B27
:1007680001D000F09DFC194B3B604FF440737B6057
:100778003B461946054802F0EBFA0346002B01D028
:1007880000F08EFC00BF2037BD4680BD80030020EE
:100798000080024202000004040000080800000C67
:1007A8001000001020000014400000188000001CF9
:1007B800000100200008002E001000320020003642
:1007C8000040003A0080003E00000142000002465E
:1007D80080B58EB000AF07F108033022002118461B
:1007E80009F028FE00237B60244B254A1A60234821
:1007F80003F03AFE0346002B01D000F051FC002321
:10080800BB6000233B7400237B7404237B610023BB
:10081800BB610023FB6101233B6200237B620B2346
:10082800FB623E233B6304237B6307F1080300223A
:100838001946124803F0D4FE0346002B01D000F0FD
:100848002FFC00237B603B1D19460C4804F068F818
:100858000346002B01D000F023FC07F10803102207
:100868001946064803F0BCFE0346002B01D000F0F1
:1008780017FC00BF3837BD4680BD00BF8404002088
:100888000018024680B500AF1F4B204A1A601E4B65
:1008980000225A601C4B00229A601B4B0022DA602F
:1008A800194B00221A74184B00225A74164B002256
:1008B8009A74154B04225A61134B01229A61124B08
:1008C8000D22DA61104B02221A620F4B01225A6282
:1008D8000D4B01229A620C4B0122DA620A4B01226B
:1008E8001A63094B00225A63074B00229A63064B8E
:1008F8000022DA63044805F03DF80346002B01D0D6
:1009080000F0CEFB00BF80BD9804002000A400408A
:1009180080B582B000AF0D4BD3F888300B4A43F056
:100928000103C2F88830094BD3F8883003F001037B
:100938007B607B68002200211D2003F0B9FC1D208C
:1009480003F0D0FC00BF0837BD4680BD000C02464E
:1009580080B500AF05F0A2FD0346002B01D000F0E2
:100968009FFB00BF80BD000080B584B000AF3B1D79
:1009780000221A605A609A60314B324A1A60304B32
:100988004FF480025A602E4B00229A602C4B0722AB
:10099800DA602B4B00221A61294B4FF080725A61A2
:1009A800274B4FF080629A61254B4FF0A042DA61E5
:1009B800234B00221A62224B00225A62204B00224B
:1009C8009A621F4B0722DA621D4B00225A631C4BA6
:1009D80000229A631A4B0022DA63194B00229A64A8
:1009E800174B0022DA64164B00221A65144B0022BA
:1009F8005A65134B00229A65114B0022DA65104B99
:100A080000221A660E4807F03DFF0346002B01D06E
:100A180000F046FB00237B604FF08053BB6000234F
:100A2800FB603B1D1946064809F0A1FB0346002B55
:100A380001D000F035FB00BF1037BD4680BD00BFB8
:100A4800FC0400200030014080B584B000AF3B1D9D
:100A580000221A605A609A60314B324A1A60304B51
:100A68004FF480025A602E4B00229A602C4B0722CA
:100A7800DA602B4B00221A61294B4FF080725A61C1
:100A8800274B4FF080629A61254B4FF08052DA6114
:100A9800234B00221A62224B00225A62204B00226A
:100AA8009A621F4B0722DA621D4B00225A631C4BC5
:100AB80000229A631A4B0022DA63194B00229A64C7
:100AC800174B0022DA64164B00221A65144B0022D9
:100AD8005A65134B00229A65114B0022DA65104BB8
:100AE80000221A660E4807F0CDFE0346002B01D0FF
:100AF80000F0D6FA00237B604FF08053BB600023E0
:100B0800FB603B1D1946064809F031FB0346002BE4
:100B180001D000F0C5FA00BF1037BD4680BD00BF48
:100B28008C0500200038004080B58AB000AF07F17E
:100B3800140300221A605A609A60DA601A619F4BA7
:100B4800D3F88C309D4A43F00403C2F88C309B4B99
:100B5800D3F88C3003F004033B613B69974BD3F81F
:100B68008C30964A43F08003C2F88C30934BD3F80C
:100B78008C3003F08003FB60FB68904BD3F88C301B
:100B88008E4A43F00103C2F88C308C4BD3F88C307A
:100B980003F00103BB60BB68884BD3F88C30874AED
:100BA80043F00203C2F88C30844BD3F88C3003F046
:100BB80002037B607B68814BD3F88C307F4A43F01B
:100BC8000803C2F88C307D4BD3F88C3003F008034F
:100BD8003B603B6801224FF42751794805F0FAFB46
:100BE80000224FF45641764805F0F4FB00224FF4FA
:100BF800B051744805F0EEFB01224FF400417248F1
:100C080005F0E8FB01220421704805F0E3FB01220E
:100C18004FF4C0716B4805F0DDFB4FF400537B6166
:100C28000123BB610123FB6100233B6207F114032D
:100C38001946634805F0EEF94FF480437B610123C0
:100C4800BB610223FB6100233B6207F114031946D1
:100C58005B4805F0DFF949F2C0737B610123BB6192
:100C68000023FB6100233B6207F114031946544833
:100C780005F0D0F94FF4A0537B610123BB61002339
:100C8800FB6100233B6207F1140319464D4805F048
:100C9800C1F94FF4E0637B614D4BBB610023FB61FD
:100CA80007F114031946484805F0B4F94FF4004316
:100CB8007B610123BB610023FB6100233B6207F1D9
:100CC80014031946404805F0A5F94FF400637B6109
:100CD8001123BB610023FB6100233B6207F114036E
:100CE8001946374805F096F904237B610123BB6157
:100CF8000023FB6100233B6207F1140319463348C4
:100D080005F088F940237B61324BBB610023FB610E
:100D180007F1140319462B4805F07CF980237B6101
:100D28001123BB610023FB6100233B6207F114031D
:100D38001946244805F06EF94FF480737B6111233E
:100D4800BB610123FB6100233B6207F114031946D1
:100D58001C4805F05FF94FF400737B610123BB6108
:100D68000223FB6100233B6207F11403194615486F
:100D780005F050F900220121112003F099FA112001
:100D880003F0B0FA00220221132003F091FA132095
:100D980003F0A8FA00220221142003F089FA142093
:100DA80003F0A0FA00220221152003F081FA152091
:100DB80003F098FA00BF2837BD4680BD000C0246F4
:100DC800000802420004024200000242000C0242F3
:100DD800000021100000111080B500AF01224FF46F
:100DE80080710B4805F0F6FA00224FF400710848AC
:100DF80005F0F0FA00224FF48041064805F0EAFABF
:100E080001224FF40051034805F0E4FA00BF80BD09
:100E1800000402420008024280B500AF01224FF4EC
:100E28000041024805F0D6FA00BF80BD000002422A
:100E380080B586B002AF03460A46FB711346BB7104
:100E4800FB797E21184609F0C9FA03461A463E4B3B
:100E58001A703D4B1B78112B01D000236FE0FB79F2
:100E68008821184609F000FA4FF4FA7000F08AFD5C
:100E7800FB798A21184609F0F7F90A2000F082FD6B
:100E8800F87940F223230093304B0022A02109F087
:100E98000BFAF879632300932B4B0022202109F0E9
:100EA80051FA0023FB600EE0274AFB6813441A78C6
:100EB8002649FB680B441B789A4201D000233EE088
:100EC800FB680133FB60FB68632BEDDD204ABB79CF
:100ED80082F82F30F879332300931D4B00224AF211
:100EE800C03109F0E1F9F87933230093164B002259
:100EF8004FF40F5109F026FA0023BB600EE0124AA6
:100F0800BB6813441A781249BB680B441B789A4291
:100F180001D0002313E0BB680133BB60BB68332BEF
:100F2800EDDDFB798A21184609F09EF9BB79012B82
:100F380004D1FB798C21184609F096F9012318464B
:100F48001037BD4680BD00BF0000002034010020DE
:100F58000001002080B500AF00228021064805F07E
:100F680039FAC82000F00EFD01228021024805F060
:100F780031FA00BF80BD00BF0004024280B5B2B0A4
:100F880002AF0023A7F8BE302D4B1B78002B37D0BB
:100F98001F23A7F8BE30012387F85C300023C7F869
:100FA800B83022E0274AD7F8B83032F813301B0A95
:100FB8009AB2D7F8B8305B000133D2B2C0333B44A1
:100FC80003F8642C1F4AD7F8B83032F81320D7F842
:100FD800B83001335B00D2B2C0333B4403F8642C11
:100FE800D7F8B8300133C7F8B830D7F8B8300E2B77
:100FF800D8DDFF2387F87B30114B00221A7005E0FB
:101008000023A7F8BE30002387F85C3000220421B3
:101018000D4805F0DFF9B7F8BE3001339BB23A4608
:1010280007F15C010A200090084808F037FA01220D
:101038000421054805F0CEF900BFC037BD4680BD84
:101048002006002044060020000C0242FC04002078
:1010580080B483B000AF7860064B1B78DBB2002BFE
:1010680002D1044B01221A7000BF0C37BD465DF84F
:10107800047B70476206002080B483B000AF03464B
:10108800FB80FB88402B02D1044B01221A7000BF61
:101098000C37BD465DF8047B704700BF2206002070
:1010A80080B400AF72B600BF00BFFDE780B582B064
:1010B80000AF0A4BD3F89430084A43F00403C2F84F
:1010C8009430064BD3F8943003F004037B607B68BC
:1010D80005F080FA00BF0837BD4680BD000C024607
:1010E80080B5BCB000AF786007F1DC0300221A605D
:1010F8005A609A60DA601A6107F11803C022002169
:10110800184609F097F97B681B68684A934240F0D3
:10111800C8804FF400424FF00003C7E906234FF49C
:101128008053C7F8BC3007F11803184606F0D6FC00
:101138000346002B01D0FFF7B3FF5D4BD3F88C308B
:101148005B4A43F48063C2F88C30594BD3F88C3037
:1011580003F480637B617B69554BD3F88C30544A28
:1011680043F00403C2F88C30514BD3F88C3003F0B1
:1011780004033B613B694E4BD3F88C304C4A43F037
:101188000103C2F88C304A4BD3F88C3003F00103CA
:10119800FB60FB68464BD3F88C30454A43F00203AA
:1011A800C2F88C30424BD3F88C3003F00203BB609A
:1011B800BB683F23C7F8DC300323C7F8E0300023BF
:1011C800C7F8E43007F1DC0319463A4804F022FF77
:1011D800CF23C7F8DC300323C7F8E0300023C7F873
:1011E800E43007F1DC031946334804F013FF072302
:1011F800C7F8DC300323C7F8E0300023C7F8E43031
:1012080007F1DC0319462D4804F004FF2C4B2D4A46
:101218001A602B4B00225A60294B00229A60284BF7
:101228000022DA60264B00221A61254B4FF4002277
:101238005A61234B01229A61214B4FF48032DA61C3
:101248001F4B00221A621E4B01225A621C4B0122BC
:101258009A621B4B0022DA62194B00221A63184B60
:1012680000225A63164803F093FB0346002B01D073
:10127800FFF716FF7B68124A1A67114A7B68D36525
:1012880010210F4803F0B0FE0346002B01D0FFF7F2
:1012980007FF00220021252003F00AF8252003F08B
:1012A80021F800BFF037BD4680BD00BF0080024274
:1012B800000C0246000802420000024200040242FA
:1012C8000C0400205000024080B5BAB000AF78602E
:1012D80007F1D40300221A605A609A60DA601A6132
:1012E80007F11003C0220021184609F0A3F87B6813
:1012F8001B68254A934243D1244A4FF00003C7E9AB
:1013080004234FF48053C7F8B4304FF40043C7F8B0
:10131800B83007F11003184606F0E0FB0346002B2F
:1013280001D0FFF7BDFE1A4BD3F89430184A43F0AA
:101338004003C2F89430164BD3F8943003F04003BE
:10134800FB60FB68124BD3F88C30114A43F0010361
:10135800C2F88C300E4BD3F88C3003F00103BB601D
:10136800BB683023C7F8D4300323C7F8D83000232C
:10137800C7F8DC3007F1D4031946064804F04AFEE2
:1013880000BFE837BD4680BD001802460080001047
:10139800000C02460000024280B5BAB000AF786087
:1013A80007F1D40300221A605A609A60DA601A6161
:1013B80007F11003C0220021184609F03BF87B68AA
:1013C8001B682F4A934257D14FF000624FF0000339
:1013D800C7E904234FF08073C7F8943007F110036E
:1013E800184606F07BFB0346002B01D0FFF758FE9A
:1013F800244BD3F8A030234A43F40073C2F8A0303A
:10140800204BD3F8A03003F40073FB60FB681D4B3E
:10141800D3F88C301B4A43F00103C2F88C30194BC7
:10142800D3F88C3003F00103BB60BB684FF4C053A2
:10143800C7F8D4300223C7F8D8300023C7F8DC3007
:101448000023C7F8E0300923C7F8E43007F1D403D4
:1014580019460D4804F0DEFD00220521272002F080
:1014680027FF272002F03EFF00220521282002F056
:101478001FFF282002F036FF00BFE837BD4680BDB9
:1014880000A40040000C02460000024280B5BCB037
:1014980000AF786007F1DC0300221A605A609A6096
:1014A800DA601A6107F11803C0220021184608F013
:1014B800C1FF7B681B68564A93424FD14FF4000224
:1014C8004FF00003C7E906234FF48013C7F8C8306C
:1014D80007F11803184606F001FB0346002B01D05C
:1014E800FFF7DEFD4B4BD3F8A4304A4A43F4805350
:1014F800C2F8A430474BD3F8A43003F480537B617F
:101508007B69444BD3F88C30424A43F00203C2F85B
:101518008C30404BD3F88C3003F002033B613B69BD
:101528003823C7F8DC300223C7F8E0300023C7F8B7
:10153800E4300023C7F8E8300523C7F8EC3007F19A
:10154800DC031946344804F065FD002200213B20E5
:1015580002F0AEFE3B2002F0C5FE54E07B681B683B
:101568002E4A93424FD14FF080724FF00003C7E9E3
:1015780006234FF48033C7F8CC3007F11803184618
:1015880006F0ACFA0346002B01D0FFF789FD214B8A
:10159800D3F89C301F4A43F48043C2F89C301D4B5B
:1015A800D3F89C3003F48043FB60FB68194BD3F8F5
:1015B8008C30184A43F00203C2F88C30154BD3F82C
:1015C8008C3003F00203BB60BB684FF46043C7F87C
:1015D800DC300223C7F8E0300023C7F8E4300023EA
:1015E800C7F8E8300523C7F8EC3007F1DC031946E3
:1015F800094804F00FFD002200213C2002F058FEAB
:101608003C2002F06FFE00BFF037BD4680BD00BF32
:1016180000300140000C024600040242003800403D
:1016280080B400AF00BFFDE780B400AF00BFFDE7A6
:1016380080B400AF00BFFDE780B400AF00BFFDE796
:1016480080B400AF00BFFDE780B400AF00BFBD4667
:101658005DF8047B704780B400AF00BFBD465DF8FD
:10166800047B704780B400AF00BFBD465DF8047BC3
:10167800704780B500AF00F065F900BF80BD80B548
:1016880000AF402004F0D8FE00BF80BD80B500AF99
:101698004FF4807004F0D0FE00BF80BD80B500AF6D
:1016A8004FF4007004F0C8FE00BF80BD80B500AFE5
:1016B8004FF4806004F0C0FE00BF80BD80B500AF6D
:1016C800024803F030FB00BF80BD00BF0C040020BF
:1016D80080B500AF024801F0CDF800BF80BD00BF63
:1016E8008003002080B500AF024804F095FA00BFDF
:1016F80080BD00BF9804002080B500AF024804F008
:101708008BFA00BF80BD00BF9804002080B500AFF1
:10171800024808F023FA00BF80BD00BFFC04002087
:1017280080B500AF024808F019FA00BF80BD00BFBD
:101738008C05002080B400AF184BD3F88830174AC6
:1017480043F47003C2F88830154B01221A60144B19
:101758000022DA61124B00221A62114B00225A62EF
:101768000F4B1B680E4A23F0A85323F41023136071
:101778000B4B00229A620A4B1B68094A23F4802308
:101788001360074B00221A65044B4FF000629A6001
:1017980000BFBD465DF8047B704700BF00ED00E068
:1017A800000C0246DFF834D0FFF7C4FF002103E045
:1017B8000B4B5B58435004310A480B4B42189A4272
:1017C800F6D30A4A02E0002342F8043B084B9A4247
:1017D800F9D308F037FEFEF74BFDFEE700000C20BA
:1017E80084A5000800000020610300206403002095
:1017F80070060020FEE7000080B500AF124B1B68A2
:10180800114A43F480731360032002F046FD05F08B
:10181800BFFF02460D4B1B6A03F00F030C49CB5C5C
:1018280022FA03F30B4A1360042002F08BFD0F2009
:1018380000F012F80346002B01D0012302E0FFF765
:1018480035FC0023184680BD00200240000C0246EB
:10185800ACA400085803002080B584B000AF7860BD
:101868000023FB60334B1B78002B01D101235CE084
:10187800314B1B6803F00403042B0CD12F4B1A685F
:101888002C4B1B7819464FF47A73B3FBF1F3B2FB78
:10189800F3F3FB6037E002F0ADFDB860BB68022BE4
:1018A80023D0BB68022B2DD8BB68002B03D0BB68A4
:1018B800012B0DD026E0214B1A681E4B1B781946C8
:1018C8004FF4FA53B3FBF1F3B2FBF3F3FB601AE006
:1018D800184B1B781A464FF47A73B3FBF2F34FF4A4
:1018E800FA42B2FBF3F3FB600DE0124B1B781A4689
:1018F8004FF47A73B3FBF2F34FF40042B2FBF3F305
:10190800FB6000E000BFF86802F0FAFC0346002B19
:1019180001D0012309E0002279684FF0FF3002F07E
:10192800C7FC074A7B681360002318461037BD467A
:1019380080BD00BF6003002010E000E058030020D5
:101948005C03002080B400AF064B1B781A46064B98
:101958001B681344044A136000BFBD465DF8047B4E
:10196800704700BF600300206C06002080B400AF01
:10197800034B1B681846BD465DF8047B704700BFE3
:101988006C06002080B584B000AF7860FFF7EEFFEA
:10199800B8607B68FB60FB68B3F1FF3F05D00A4B7A
:1019A8001B781A46FB681344FB6000BFFFF7DEFF95
:1019B8000246BB68D31AFA689A42F7D800BF00BF3C
:1019C8001037BD4680BD00BF6003002080B400AF63
:1019D800044B1B681B0C9BB21846BD465DF8047B84
:1019E800704700BF004004E080B483B000AF786067
:1019F80039607B681B6823F470123B681A437B6864
:101A08001A6000BF0C37BD465DF8047B704780B490
:101A180083B000AF786039607B681B6823F0E072A0
:101A28003B681A437B681A6000BF0C37BD465DF8F7
:101A3800047B704780B483B000AF78607B681B6814
:101A480003F0E07318460C37BD465DF8047B704719
:101A580080B485B000AF786039603B68FB607B6814
:101A68000A4A934204D1FB68013B03F00C03FB6074
:101A78007B68DB6823F00C02FB681A437B68DA603A
:101A880000BF1437BD465DF8047B7047001002465E
:101A980080B487B000AFF860B9607A603B60FB68DB
:101AA80060331A46BB689B0013447B617B691B68E3
:101AB80003F0E0627B685B0003F078413B680B430E
:101AC8001A437B691A6000BF1C37BD465DF8047B6A
:101AD800704780B485B000AF786039607B68603348
:101AE8001A463B689B001344FB60FB681B68DB0ECF
:101AF80003F01F03BB60BB68092B07D8BB689A06B5
:101B08000121BB6801FA03F3134308E0BB689A0696
:101B18000121BB6801FA03F3134343F0007318462D
:101B28001437BD465DF8047B704780B487B000AFBA
:101B3800F860B9607A60FB6860331A46BB689B003E
:101B480013447B617B691B6823F080727B681A43AE
:101B58007B691A6000BF1C37BD465DF8047B70477F
:101B680080B487B000AFF860B9607A60FB68603312
:101B78001A46BB689B0013447B617B691B6823F092
:101B880080627B681A437B691A6000BF1C37BD46B8
:101B98005DF8047B704780B487B000AFF860B96027
:101BA8007A60FB6860331A46BB689B0013447B610C
:101BB8007B691B6823F000727B681A437B691A6093
:101BC80000BF1C37BD465DF8047B704780B483B006
:101BD80000AF786039607B681B6F23F47F5323F074
:101BE8003F033A681A437B681A677B681B6F23F0C8
:101BF80000433A68002A02D04FF0004200E0002279
:101C08001A437B681A6700BF0C37BD465DF8047B32
:101C1800704780B485B000AFF860B9607A60FB683F
:101C28005A69BB6803F00403072101FA03F3DB4395
:101C38001A40BB6803F00403796801FA03F31A43F6
:101C4800FB685A6100BF1437BD465DF8047B7047D6
:101C580080B483B000AF78607B68DB6803F44063CE
:101C6800002B01D1012300E0002318460C37BD46A4
:101C78005DF8047B7047000080B489B000AFF8605D
:101C8800B9607A60FB682B4A934220D0FB683033F6
:101C98001A46BB681B0A9B0003F00C031344FB6144
:101CA800FB691A68BB6803F01F031F2101FA03F3DD
:101CB800DB431A407B689B0E03F01F01BB6803F0EF
:101CC8001F0301FA03F31A43FB691A602BE0FB6850
:101CD8009A6ABB6803F01F030F2101FA03F3DB4381
:101CE8001A407B6823F07F43002B04D17B689B0E4E
:101CF80003F01F0310E07B687B617B6993FAA3F311
:101D08003B613B69BB61BB69002B01D1202303E028
:101D1800BB69B3FA83F3DBB2B96801F01F018B40EA
:101D28001A43FB689A6200BF2437BD465DF8047BFE
:101D3800704700BF0010024680B487B000AF7860DB
:101D480039603B6823F07F43002B07D13B689B0E2B
:101D580003F01F03012202FA03F315E03B683B611D
:101D68003B6993FAA3F3FB60FB687B617B69002BFB
:101D780001D1202303E07B69B3FA83F3DBB203F0DC
:101D88001F03012202FA03F37A68926A1A437B68F6
:101D98009A6200BF1C37BD465DF8047B704780B46B
:101DA80083B000AF786039607B689A6A3B689B0EA5
:101DB80003F01F03012101FA03F3DB431A407B6898
:101DC8009A6200BF0C37BD465DF8047B704780B44B
:101DD80083B000AF78607B68DB6803F003031846C4
:101DE8000C37BD465DF8047B704780B483B000AF04
:101DF80078607B68DB6C03F4C073002B01D101238E
:101E080000E0002318460C37BD465DF8047B704798
:101E180080B48BB000AFF860B9607A60FB682D4A77
:101E2800934242D0BB6823F07F43002B04D1BB68A8
:101E38009B0E03F01F0211E0BB68BB61BB6993FAFC
:101E4800A3F37B617B69FB61FB69002B01D1202334
:101E580003E0FB69B3FA83F3DBB21A46BB685B0E97
:101E680003F001010B469B000B445B00D21A13469A
:101E78005B0013447B62FB6814331A46BB685B0E35
:101E88009B0003F0040313443B623B6A1A68072172
:101E98007B6A01FA03F3DB431A4079687B6A01FA2B
:101EA80003F31A433B6A1A600EE0FB685A69BB6881
:101EB8001B02DB431A40BB6819027B680B4023F006
:101EC800FF031A43FB685A6100BF2C37BD465DF813
:101ED800047B70470010024680B485B000AFF860FC
:101EE800B9607A60FB68D3F8C020BB6823F07F43F1
:101EF800DB431A407B6803F018030849D940BB68E4
:101F08000B4023F07F431A43FB68C3F8C02000BF8F
:101F18001437BD465DF8047B704700BFFFFF0F0014
:101F280080B483B000AF78607B689B6823F020435F
:101F380023F03F037A68936000BF0C37BD465DF815
:101F4800047B704780B483B000AF78607B689B687F
:101F580003F00053B3F1005F01D1012300E0002337
:101F680018460C37BD465DF8047B704780B483B0D3
:101F780000AF78607B689B6823F0104323F03F0331
:101F880043F080527B689A6000BF0C37BD465DF80D
:101F9800047B704780B483B000AF78607B689B682F
:101FA80003F08053B3F1805F01D1012300E00023E7
:101FB80018460C37BD465DF8047B704780B483B083
:101FC80000AF78607B689B6823F0004323F03F03F1
:101FD80043F001027B689A6000BF0C37BD465DF88C
:101FE800047B704780B483B000AF78607B689B68DF
:101FF80023F0004323F03F0343F002027B689A601A
:1020080000BF0C37BD465DF8047B704780B483B0D1
:1020180000AF78607B689B6803F00103012B01D156
:10202800012300E0002318460C37BD465DF8047B09
:10203800704780B483B000AF78607B689B6803F01A
:102048000203022B01D1012300E0002318460C37BC
:10205800BD465DF8047B704780B483B000AF7860FC
:102068007B689B6823F0004323F03F0343F004029E
:102078007B689A6000BF0C37BD465DF8047B7047EB
:1020880080B483B000AF78607B689B6803F004037A
:10209800042B01D1012300E0002318460C37BD466C
:1020A8005DF8047B704780B483B000AF78607B68CC
:1020B8009B6803F00803082B01D1012300E00023EB
:1020C80018460C37BD465DF8047B704780B58AB06A
:1020D80000AF7860002387F8273000233B62002395
:1020E800FB617B68002B01D10123B3E27B681B698C
:1020F800002B03D07B681B688B4A93427B689B6FDD
:10210800002B09D17868FEF7EBFF7B680022DA67BD
:102118007B68002283F874207B681B681846FFF7E9
:1021280011FF0346002B04D07B681B681846FFF795
:10213800F7FE7B681B681846FFF72CFF0346002B49
:1021480015D17B681B681846FFF710FF774B1B6893
:102158009B09774AA2FB03239B0901335B00FB60C1
:1021680002E0FB68013BFB60FB68002BF9D17B6850
:102178001B681846FFF70EFF0346002B0ED17B683D
:102188009B6F43F010027B689A677B68DB6F43F0B4
:1021980001027B68DA67012387F827307B681B68B0
:1021A8001846FFF76DFFB8617B689B6F03F010035B
:1021B800002B40F04482BB69002B40F040827B68D2
:1021C8009B6F23F4817343F002027B689A677B68F4
:1021D8001B681846FFF71AFF0346002B40D17B689F
:1021E8001B68514A934228D07B681B68514A934226
:1021F80009D15048FFF70AFF0346002B0CBF012303
:102208000023DBB208E04848FFF700FF0346002B35
:102218000CBF01230023DBB2002B21D07B681B6895
:10222800444A934201D1444A00E0444A7B685B68CF
:1022380019461046FFF7D8FB12E07B681A687B68DE
:102248009B6819461046FFF703FC3C4B1B6823F4B8
:1022580070127B685B6803F47013384913430B6092
:102268007B681B68304A934210D07B6893F824300F
:102278005A037B685B6C1A437B689B681A437B68CC
:1022880093F82C301B0413433B6230E07B681B7FC0
:102298009A037B6893F824305B0313437A68526C83
:1022A800002A02D04FF4805200E000221A437B68D3
:1022B8005B691A437B681B69002B04DA7B681B691E
:1022C80023F0004301E04FF400131A437B681B68B6
:1022D80018498B4203D17B6893F8403003E07B6850
:1022E80093F840305B0013433A6A13433B627B68C0
:1022F80093F82C30012B2FD17B681B680A4A934234
:1023080007D07B681B6B013B5B043A6A13433B6253
:1023180022E07B6893F82430002B11D13B6A43F408
:1023280080333B6218E000BF0010024658030020CB
:10233800632D3E05008002420883024208130246CC
:102348007B689B6F43F020027B689A677B68DB6F32
:1023580043F001027B68DA677B681B68924A934204
:1023680018D07B685B6B002B09D07B685B6B03F430
:1023780078727B689B6B13433A6A13433B627B68B2
:102388001B68DA68894B13407A681268396A0B430C
:10239800D36031E07B685B6B002B09D07B685B6B9B
:1023A80003F4E0727B689B6B13433A6A13433B6206
:1023B8007B681B68DA687E4B13407A681268396A52
:1023C8000B43D3607B681B6A002B08D07B681B68B3
:1023D800596C7B681A6A7B681B680A435A647B6875
:1023E800DB6E002B08D07B681B68596C7B68DA6E43
:1023F8007B681B680A435A647B681B686A4A934275
:1024080000F093807B681B681846FFF739FE7861F7
:102418007B681B681846FFF746FE38617B69002B0E
:1024280061D13B69002B5ED17B681B7F9A037B6877
:102438001B6860498B4202D17B68DB6B02E07B68DA
:10244800DB6B5B0013433B627B681B68DB6823F430
:10245800804323F003037A681268396A0B43D36018
:102468007B68DB68002B07D07B681A687B68DB68B1
:1024780019461046FFF7AAFB7B6893F85430012BE6
:102488001ED17B685B6B002B7B681B681A694A4B03
:1024980013407A68926D11047A68D26D11437A6894
:1024A800126E11437A68526E11437A68926E9208DE
:1024B8000A431A437B681B6842F001021A6107E06D
:1024C8007B681B681A697B681B6822F001021A6125
:1024D8007B681B681B6923F070417B681A6D7B68F9
:1024E8001B680A431A617B681B69012B0CD17B6846
:1024F8001B681B6B23F00F017B689B6A5A1E7B6865
:102508001B680A431A6307E07B681B681A6B7B68C1
:102518001B6822F00F021A637B689B6F23F003038A
:1025280043F001027B689A6792E07B6893F8543025
:10253800012B11D17B689A6D7B68DB6D1A437B6830
:102548001B6E1A437B689B6E1343FA691343FB6146
:10255800FB6943F00103FB617B681B681A69174B31
:1025680013407A681268F9690B4313617B6818682D
:102578007B689B6C1A460021FFF74BFB7B68186849
:102588007B68DB6C1A466FF0FB01FFF742FB7B6848
:102598001B69002B14D17B681B689A6A7B681B68CF
:1025A80062F00F029A6224E00010024613C0F0FFA6
:1025B8000D80DEFF008002421EF800FC02FCFFF7DF
:1025C8007B681B69B3F5001F13D17B681B689B6A86
:1025D8007B689B6A013B9B0003F01C036FF00F02B2
:1025E80002FA03F17B68D3F888207B681B680A43EA
:1025F8009A627B681B68DA68184B13403A6A9A42F9
:102608000BD17B680022DA677B689B6F23F003039A
:1026180043F001027B689A671AE07B689B6F23F09E
:10262800120343F010027B689A677B68DB6F43F004
:1026380001027B68DA67012387F8273008E07B68A6
:102648009B6F43F010027B689A67012387F8273055
:1026580097F8273018462837BD4680BDF3FF3F83DB
:1026680080B5A2B000AFF860B9607A60FB681B68FB
:102678001846FFF705FD0346002B40F0E980FB688C
:1026880093F87430012B01D10223E6E0FB680122A4
:1026980083F87420F86801F033FA034687F8873026
:1026A80097F88730002B40F0CE80FB689B6F23F4AF
:1026B800706323F0010343F48072FB689A67FB6838
:1026C8001B68684A934210D0FB689B6F03F48053E1
:1026D800002B06D0FB68DB6F23F00602FB68DA6785
:1026E80006E0FB680022DA6702E0FB680022DA678E
:1026F800FB681B6F5C4A1A66FB681B6F5B4A5A666D
:10270800FB681B6F5A4A9A66FB681B681C221A6092
:10271800FB68002283F87420FB681B685A68FB6812
:102728001B6842F010025A60FB681B684D4A9342CE
:1027380007D1FB681B68DA68FB681B6842F0010276
:10274800DA60FB681B6F1B6D03F08003002B4FD012
:10275800FB681B6F5B6F002B46D0FB681B6F5B6FC2
:102768001B68002B40D0FB681B6F5B6F1A6807F172
:1027780014031146184602F0ADFF0346002B01D0A2
:1027880001236AE0FB6A022B04D17B689B00C7F82F
:1027980080300AE0FB6A012B04D17B685B00C7F834
:1027A800803002E07B68C7F88030FB681B6F5B6F86
:1027B8001B68D7F880209A60FB681B6803F1400209
:1027C800FB681B6F5B6F1B68DA60FB681B6F5B6FD6
:1027D8001B68BA681A61FB681B6F184602F0E6FEB0
:1027E800034687F8873028E0012387F8873024E0FC
:1027F800FB681B6F9B69022B04D17B689B00C7F8A1
:1028080080300CE0FB681B6F9B69012B04D17B684F
:102818005B00C7F8803002E07B68C7F88030FB684F
:10282800186FFB681B6840331946BA68D7F88030C0
:1028380002F0F0F9034687F88730FB681B681846F2
:10284800FFF70AFC07E0FB68002283F8742002E027
:10285800022387F8873097F8873018468837BD46AF
:1028680080BD00BF00100246A73C00087F3D00085D
:102878009B3D000880B588B000AF78600023FB61FD
:102888007B681B681B68BB617B681B685B687B6136
:10289800BB6903F00203002B17D07B6903F0020326
:1028A800002B12D07B689B6F03F01003002B05D11F
:1028B8007B689B6F43F400627B689A67786801F0D5
:1028C80035FC7B681B6802221A60BB6903F00403AD
:1028D800002B04D07B6903F00403002B0BD1BB69E8
:1028E80003F00803002B00F0A4807B6903F00803C1
:1028F800002B00F09E807B689B6F03F01003002B79
:1029080005D17B689B6F43F400727B689A677B688C
:102918001B683D4A934247D07B681B681846FFF7FF
:1029280097F90346002B7DD07B681B68DB683B6109
:102938003B6903F40053002B74D17B681B681B6848
:1029480003F00803082B6DD17B681B681846FFF756
:1029580097FB0346002B1AD17B681B685A687B6873
:102968001B6822F00C025A607B689B6F23F480720C
:102978007B689A677B689B6F03F48053002B51D167
:102988007B689B6F43F001027B689A674AE07B682B
:102998009B6F43F010027B689A677B68DB6F43F09C
:1029A80001027B68DA673DE07B681B681846FFF721
:1029B8004FF90346002B35D07B6893F82430002B61
:1029C80030D17B681B681B6803F00803082B29D1EA
:1029D8007B681B681846FFF753FB0346002B15D18D
:1029E8007B681B685A687B681B6822F00C025A6077
:1029F8007B689B6F23F4807323F0010343F001028B
:102A08007B689A670EE000BF001002467B689B6FE8
:102A180043F020027B689A677B68DB6F43F0010212
:102A28007B68DA677868FEF713FB7B681B680C2203
:102A38001A607B681B686D4A93426FD0BB6903F0CC
:102A48002003002B04D07B6903F02003002B09D15D
:102A5800BB6903F04003002B60D07B6903F040039F
:102A6800002B5BD07B689B6F03F01003002B05D114
:102A78007B689B6F43F400527B689A677B681B688E
:102A88001846FFF7B2F9F8607B681B681846FFF72D
:102A9800DFF8B8607B681B68DB683B61FB68002B6C
:102AA80035D03B6903F00073002B07D0BB68002BBF
:102AB8002DD03B6903F40053002B28D17B681B6899
:102AC8001B6803F04003402B21D17B681B68184624
:102AD800FFF7E9FA0346002B19D17B681B685A688F
:102AE8007B681B6822F060025A607B689B6F23F446
:102AF80080527B689A677B689B6F03F48073002B16
:102B080005D17B689B6F43F001027B689A67786800
:102B180001F0EEFA7B681B6860221A60BB6903F05B
:102B28008003002B11D07B6903F08003002B0CD0AD
:102B38007B689B6F43F480327B689A67786800F003
:102B4800D5F87B681B6880221A60BB6903F4807320
:102B5800002B12D07B6903F48073002B0DD07B68A7
:102B68009B6F43F400327B689A67786801F0CAFA71
:102B78007B681B684FF480721A60BB6903F40073AA
:102B8800002B12D07B6903F40073002B0DD07B68F7
:102B98009B6F43F480227B689A67786801F0BCFADF
:102BA8007B681B684FF400721A60BB6903F010035E
:102BB800002B3DD07B6903F01003002B38D07B68D5
:102BC8005B6C002B02D10123FB611BE07B681B6857
:102BD800064A93420CD07B681B68DB6803F003034A
:102BE800002B0FD00123FB610CE000BF0010024650
:102BF8007B681B681846FFF7EAF80346002B01D0EC
:102C08000123FB61FB69012B0ED17B689B6F43F4A9
:102C180080627B689A677B68DB6F43F002027B689F
:102C2800DA67786800F06CF87B681B6810221A6015
:102C3800BB6903F00103002B1BD07B6903F0010380
:102C4800002B16D07B689B6F03F01003002B05D177
:102C58007B689B6F43F001027B689A67786800F095
:102C68006DF87B681B685A687B681B6822F0010254
:102C78005A607B681B68174A934226D1BB6903F4E4
:102C88000063002B0CD07B6903F40063002B07D092
:102C9800786800F03FF87B681B684FF400621A60A0
:102CA800BB6903F48053002B0FD07B6903F4805376
:102CB800002B0AD0786800F037F87B681B685A68E0
:102CC8007B681B6822F480525A6000BF2037BD46DB
:102CD80080BD00BF0010024680B483B000AF7860AA
:102CE80000BF0C37BD465DF8047B704780B483B0E5
:102CF80000AF786000BF0C37BD465DF8047B7047B5
:102D080080B483B000AF786000BF0C37BD465DF873
:102D1800047B704780B483B000AF786000BF0C3785
:102D2800BD465DF8047B704780B483B000AF78601F
:102D380000BF0C37BD465DF8047B704780B483B094
:102D480000AF786000BF0C37BD465DF8047B704764
:102D580080B5BCB000AF78603960002387F8EF30E9
:102D68000023BB607B681B68A84A934203D17B6839
:102D78001B69B3F1004F7B6893F87430012B02D1C3
:102D8800022300F0B5BE7B68012283F874207B68BB
:102D98001B681846FFF774F90346002B40F0958628
:102DA8007B681B68994A934200F0EA833B681B687A
:102DB80023F07F43002B08D13B681B689B0E03F070
:102DC8001F03012202FA03F31DE03B681B68C7F8E2
:102DD800D030D7F8D03093FAA3F3C7F8CC30D7F86F
:102DE800CC30C7F8D430D7F8D430002B01D1202309
:102DF80004E0D7F8D430B3FA83F3DBB203F01F034F
:102E0800012202FA03F37A681268D1697A681268B3
:102E18000B43D3617B6818683B6859683B681B683B
:102E28001A46FEF729FF7B681B681846FFF728F942
:102E3800C7F8E0007B681B681846FFF734F9C7F845
:102E4800DC00D7F8E030002B40F0ED81D7F8DC301B
:102E5800002B40F0E8817B6818683B6819683B687C
:102E68009B681A46FEF7D4FF3B685A697B681B6863
:102E7800DB689B0803F003035B0002FA03F3C7F85F
:102E8800D8303B681B69042B46D07B6818683B68C0
:102E980019693B681A68D7F8D830FEF7F9FD7B68DE
:102EA80018683B6819693B68DB691A46FEF73DFEFE
:102EB8003B689B7E012B1ED17B6818683B681969AB
:102EC8003B685B7E002B02D14FF0007300E00023CB
:102ED8001A46FEF760FE7B6818683B6819693B680C
:102EE8005B7E012B02D14FF0806300E000231A467D
:102EF800FEF736FE97E17B6818683B681B6900227D
:102F08001946FEF748FE7B6818683B681B69002273
:102F18001946FEF725FE86E17B681B6800211846E6
:102F2800FEF7D7FD034623F07F43002B0AD17B68C9
:102F38001B6800211846FEF7CCFD03469B0E03F0E4
:102F48001F021EE07B681B6800211846FEF7C1FDC2
:102F58000346C7F8C430D7F8C43093FAA3F3C7F8C8
:102F6800C030D7F8C030C7F8C830D7F8C830002B01
:102F780001D1202304E0D7F8C830B3FA83F3DBB2D9
:102F88001A463B681B6823F07F43002B05D13B683A
:102F98001B689B0E03F01F0318E03B681B68C7F80B
:102FA800B830D7F8B83093FAA3F3C7F8B430D7F8E5
:102FB800B430C7F8BC30D7F8BC30002B01D120237F
:102FC80004E0D7F8BC30B3FA83F3DBB29A4207D1F6
:102FD8007B6818683B681A6800230021FEF758FDD3
:102FE8007B681B6801211846FEF773FD034623F032
:102FF8007F43002B0CD17B681B6801211846FEF724
:1030080068FD03469B0E03F01F0220E000100246F5
:103018007B681B6801211846FEF75BFD0346C7F86D
:10302800AC30D7F8AC3093FAA3F3C7F8A830D7F888
:10303800A830C7F8B030D7F8B030002B01D1202322
:1030480004E0D7F8B030B3FA83F3DBB21A463B6832
:103058001B6823F07F43002B05D13B681B689B0E40
:1030680003F01F0318E03B681B68C7F8A030D7F8C7
:10307800A03093FAA3F3C7F89C30D7F89C30C7F870
:10308800A430D7F8A430002B01D1202304E0D7F8CE
:10309800A430B3FA83F3DBB29A4207D17B6818688D
:1030A8003B681A6800230121FEF7F2FC7B681B6865
:1030B80002211846FEF70DFD034623F07F43002B3F
:1030C8000AD17B681B6802211846FEF702FD0346F9
:1030D8009B0E03F01F021EE07B681B680221184646
:1030E800FEF7F7FC0346C7F89430D7F8943093FA04
:1030F800A3F3C7F89030D7F89030C7F89830D7F8CE
:103108009830002B01D1202304E0D7F89830B3FA87
:1031180083F3DBB21A463B681B6823F07F43002B1E
:1031280005D13B681B689B0E03F01F0318E03B6842
:103138001B68C7F88830D7F8883093FAA3F3C7F824
:103148008430D7F88430C7F88C30D7F88C30002B0F
:1031580001D1202304E0D7F88C30B3FA83F3DBB233
:103168009A4207D17B6818683B681A6800230221D5
:10317800FEF78EFC7B681B6803211846FEF7A9FC46
:10318800034623F07F43002B0AD17B681B68032189
:103198001846FEF79EFC03469B0E03F01F021AE03A
:1031A8007B681B6803211846FEF793FC0346FB6700
:1031B800FB6F93FAA3F3BB67BB6FC7F88030D7F8F0
:1031C8008030002B01D1202304E0D7F88030B3FAF7
:1031D80083F3DBB21A463B681B6823F07F43002B5E
:1031E80005D13B681B689B0E03F01F0311E03B6889
:1031F8001B683B673B6F93FAA3F3FB66FB6E7B6729
:103208007B6F002B01D1202303E07B6FB3FA83F39C
:10321800DBB29A4207D17B6818683B681A680023BA
:103228000321FEF735FC7B681B681846FEF7EEFEA7
:103238000346002B40F056847B6818683B68196881
:103248003B68DB681A46FEF747FE3B68DB6813F508
:10325800803F40F0D6803B681B6823F07F43002BFB
:103268000BD13B681B689B0E013303F01F03092B2E
:1032780094BF01230023DBB219E03B681B687B661F
:103288007B6E93FAA3F33B663B6EBB66BB6E002B6B
:1032980001D1202303E0BB6EB3FA83F3DBB2013321
:1032A80003F01F03092B94BF01230023DBB2002B7B
:1032B8004DD03B681B6823F07F43002B07D13B6848
:1032C8001B689B0E01339B0603F0F84215E03B6830
:1032D8001B68BB65BB6D93FAA3F37B657B6DFB65D0
:1032E800FB6D002B01D1202303E0FB6DB3FA83F3C0
:1032F800DBB201339B0603F0F8423B681B6823F0FE
:103308007F43002B09D13B681B689B0E013303F0F8
:103318001F03012101FA03F317E03B681B68FB64F4
:10332800FB6C93FAA3F3BB64BB6C3B653B6D002B52
:1033380001D1202303E03B6DB3FA83F3DBB2013301
:1033480003F01F03012101FA03F313434EE03B6826
:103358001B6823F07F43002B07D13B681B689B0E3B
:1033680001339B0603F0F84215E03B681B683B6499
:103378003B6C93FAA3F3FB63FB6B7B647B6C002BC6
:1033880001D1202303E07B6CB3FA83F3DBB2013372
:103398009B0603F0F8423B681B6823F07F43002B31
:1033A80009D13B681B689B0E013303F01F03012101
:1033B80001FA03F317E03B681B687B637B6B93FAA6
:1033C800A3F33B633B6BBB63BB6B002B01D1202397
:1033D80003E0BB6BB3FA83F3DBB2013303F01F03E3
:1033E800012101FA03F3134343F00073C7F8E830EF
:1033F8007B6818683B689B681A46D7F8E810FEF7A0
:1034080007FD3B681B68002B80F26C837B681B6898
:10341800974A934201D1974B00E0974B1846FEF725
:1034280009FBC7F8E4007B681B68914A934209D1FD
:103438008F48FEF7EBFD0346002B0CBF012300234A
:10344800DBB208E08D48FEF7E1FD0346002B0CBF18
:1034580001230023DBB2002B00F088803B681B6847
:10346800874A934232D1D7F8E43003F40003002BA3
:103478002CD17B681B687E4A934205D07B681B6809
:103488007E4A934240F02B837B681B68784A9342BC
:1034980001D1784A00E0784AD7F8E43043F40003D1
:1034A80019461046FEF7B3FA764B1B689B09764A15
:1034B800A2FB03239B0901335B00BB6002E0BB68EE
:1034C800013BBB60BB68002BF9D108E33B681B6874
:1034D8006E4A934221D1D7F8E43003F08073002B71
:1034E8001BD17B681B68624A934205D07B681B68C6
:1034F800624A934240F0F5827B681B685C4A9342BB
:1035080001D15C4A00E05C4AD7F8E43043F08073AC
:1035180019461046FEF77BFAE3E23B681B685C4AF3
:10352800934240F0DF82D7F8E43003F48003002BA5
:1035380040F0D8827B681B684D4A934205D07B686F
:103548001B684E4A934240F0CD827B681B68484A0C
:10355800934201D1474A00E0474AD7F8E43043F4A0
:10356800800319461046FEF752FABBE27B689B6F50
:1035780043F020027B689A67012387F8EF30B1E2B5
:103588003B681B68C7F8E830FEF720FA0346B3F536
:10359800805F30D13B681B683E4A934203D13E4B63
:1035A800C7F8E83027E03B681B683C4A934203D1E0
:1035B8003B4BC7F8E8301EE03B681B68394A93422A
:1035C80003D1394BC7F8E83015E03B681B68374A28
:1035D800934203D1364BC7F8E8300CE03B681B68D0
:1035E800344A934203D1314BC7F8E83003E03B68D3
:1035F8001B68C7F8E8303B685B68022B00F0A281C3
:103608007B681B69B3F1004F04D07B681B692A4AA9
:10361800934207D17B681B68D7F8E8101846FEF775
:103628008BFBC1E07B68D3F888203B685B6803F0BC
:103638001F030F2101FA03F3DB431A40D7F8E830E0
:1036480023F07F43002B05D1D7F8E8309B0E03F019
:103658001F0337E0D7F8E830BB62BB6A93FAA3F3DD
:103668007B627B6AFB62FB6A002B27D1202329E05F
:1036780000800242088302420813024600100246F4
:10368800000008CE58030020632D3E05000004CA40
:1036980001000080002000B6000040DA004000BAB7
:1036A800000080DE001000B201000081000020D67A
:1036B800000010D2000020D710000080FB6AB3FA87
:1036C80083F3DBB23968496801F01F018B401A4364
:1036D8007B68C3F888203B685B689B085A1C7B683A
:1036E8009B6A9A4260D8FEF771F90346B3F5805F8A
:1036F80051D8D7F8E83023F07F43002B0AD1D7F808
:10370800E8309B0E03F01F03132B8CBF012300230B
:10371800DBB216E0D7F8E830FB61FB6993FAA3F354
:10372800BB61BB693B623B6A002B01D1202303E0EC
:103738003B6AB3FA83F3DBB2132B8CBF012300235C
:10374800DBB2002B27D0D7F8E83023F07F43002BDB
:1037580009D1D7F8E8309B0E03F01F03093B01227B
:1037680002FA03F315E0D7F8E8303B613B6993FAB6
:10377800A3F3FB60FB687B617B69002B01D12023ED
:1037880003E07B69B3FA83F3DBB2093B012202FA57
:1037980003F3C7F8E8307B6818683B685B68D7F8BC
:1037A800E8201946FEF768FA7B6818683B689B684A
:1037B8001A46D7F8E810FEF72BFB3B681B68002B6E
:1037C80080F290817B681B68974A934201D1974B9E
:1037D80000E0974B1846FEF72DF9C7F8E4003B6860
:1037E8001B68944A934226D1D7F8E43003F40003C7
:1037F800002B20D17B681B688B4A934201D18B4AEE
:1038080000E08B4AD7F8E43043F400031946104629
:10381800FEF7FDF8884B1B689B09884AA2FB032327
:103828009B095B00BB6002E0BB68013BBB60BB68F7
:10383800002BF9D167E03B681B68814A934216D197
:10384800D7F8E43003F08073002B10D17B681B6835
:10385800754A934201D1754A00E0754AD7F8E430B9
:1038680043F0807319461046FEF7D1F84BE03B68E9
:103878001B68744A934216D1D7F8E43003F48003E6
:10388800002B10D17B681B68674A934201D1674AB5
:1038980000E0674AD7F8E43043F48003194610463D
:1038A800FEF7B5F82FE03B681B68674A93422AD1B8
:1038B800D7F8E43003F48003002B24D17B681B681D
:1038C800624A93421FD17B681B68574A934201D1D1
:1038D800564A00E0564AD7F8E43043F480031946C4
:1038E8001046FEF794F8FEF771F80346B3F5805FCB
:1038F80009D87B681B68D3F8D0207B681B6842F026
:103908000102C3F8D020FEF761F80346B3F5005F63
:1039180040F0E8803B681B684D4A934240F0E280E3
:10392800D7F8E43003F48003002B40F0DB807B6899
:103938001B68D3F8D0207B681B6842F00102C3F8EB
:10394800D020CFE07B681B69B3F1004F04D07B68BF
:103958001B69404A934206D17B681B68D7F8E81078
:103968001846FEF71CFA3B681B68002B80F2BA80E9
:103978007B681B682C4A934201D12C4B00E02C4BEE
:103988001846FEF757F8C7F8E4003B681B68324A48
:10399800934210D17B681B68234A934201D1234A82
:1039A80000E0234AD7F8E43023F400031946104610
:1039B800FEF72DF86DE03B681B68284A934210D14A
:1039C8007B681B68184A934201D1184A00E0184ADC
:1039D800D7F8E43023F0807319461046FEF717F83D
:1039E80057E03B681B68174A934210D17B681B68F5
:1039F8000D4A934201D10D4A00E00D4AD7F8E43050
:103A080023F4800319461046FEF701F841E03B68AD
:103A18001B680D4A93423CD17B681B68024A93425B
:103A28001ED1024A1DE000BF008002420883024204
:103A380008130246002000B658030020632D3E05F7
:103A4800004000BA01000080001000B200100246D9
:103A5800000020D710000080000008CE000004CA33
:103A6800254AD7F8E43023F4800319461046FDF7B9
:103A7800CEFFFDF7ABFF0346B3F5805F09D87B683F
:103A88001B68D3F8D0207B681B6842F00102C3F89A
:103A9800D020FDF79BFF0346B3F5005F22D13B68BA
:103AA8001B68164A93421DD1D7F8E43003F480030B
:103AB800002B17D17B681B68D3F8D0207B681B6864
:103AC80042F00102C3F8D0200CE07B689B6F43F002
:103AD80020027B689A67012387F8EF3002E000BF75
:103AE80000E000BF7B68002283F8742097F8EF306D
:103AF8001846F037BD4680BD08130246000020D79F
:103B080080B584B000AF78607B681B681846FEF704
:103B18007DFA0346002B5AD17B681B689A682E4BA6
:103B28001340002B0DD07B689B6F43F010027B681D
:103B38009A677B68DB6F43F001027B68DA670123D1
:103B480046E07B681B6801221A607B681B68184680
:103B5800FEF734FA7B681B6A002B04D07B681B686D
:103B68001E4A934233D0FDF701FFF86028E07B68D6
:103B78001B681846FEF74AFA0346002B04D17B68F7
:103B88001B681846FEF71AFAFDF7F0FE0246FB68B6
:103B9800D31A022B14D97B681B681B6803F0010336
:103BA800012B0DD07B689B6F43F010027B689A67EE
:103BB8007B68DB6F43F001027B68DA67012307E06B
:103BC8007B681B681B6803F00103012BCFD100231E
:103BD80018461037BD4680BD3F00008000100246E1
:103BE80080B584B000AF78607B681B681846FEF724
:103BF80020FAF8607B681B681846FEF707FA034648
:103C0800002B47D0FB68002B44D17B681B689B685E
:103C180003F00D03012B0CD17B681B681846FEF7D7
:103C2800E1F97B681B6803221A60FDF79FFEB86004
:103C380029E07B689B6F43F010027B689A677B687A
:103C4800DB6F43F001027B68DA67012323E0FDF7AD
:103C58008DFE0246BB68D31A022B14D97B681B68F9
:103C68009B6803F00103002B0DD07B689B6F43F02A
:103C780010027B689A677B68DB6F43F001027B6800
:103C8800DA67012307E07B681B689B6803F0010380
:103C9800002BDCD1002318461037BD4680BD80B507
:103CA80084B000AF78607B68DB6DFB60FB689B6F5E
:103CB80003F05003002B4BD1FB689B6F43F4007259
:103CC800FB689A67FB681B681B6803F00803002BF6
:103CD80021D0FB681B681846FDF7BAFF0346002B86
:103CE80032D0FB681B68DB6803F40053002B2BD130
:103CF800FB689B6F23F48072FB689A67FB689B6F75
:103D080003F48053002B1FD1FB689B6F43F0010223
:103D1800FB689A6718E0FB681B68DB6803F003031D
:103D2800002B11D1FB689B6F23F48072FB689A67A4
:103D3800FB689B6F03F48053002B05D1FB689B6FD6
:103D480043F00102FB689A67F868FDF781F90EE015
:103D5800FB689B6F03F01003002B03D0F868FEF795
:103D6800CFFF04E0FB681B6F9B6E7868984700BF25
:103D78001037BD4680BD80B584B000AF78607B68E1
:103D8800DB6DFB60F868FEF7A7FF00BF1037BD4684
:103D980080BD80B584B000AF78607B68DB6DFB6068
:103DA800FB689B6F43F04002FB689A67FB68DB6F18
:103DB80043F00402FB68DA67F868FEF7A1FF00BF6A
:103DC8001037BD4680BD000080B483B000AF786076
:103DD80039607B680F4A93420CD07B689A680E4B17
:103DE80013403A6802F48032134343F000427B6880
:103DF8009A6009E07B689B6823F0004323F03F0347
:103E080043F000427B689A6000BF0C37BD465DF8FE
:103E1800047B704700100246C0FFFE7F80B483B069
:103E280000AF78607B689B6803F00043B3F1004FF4
:103E380001D1012300E0002318460C37BD465DF888
:103E4800047B704780B58AB000AFF860B9607A60CB
:103E580000233B61FB6893F87430012B01D10223E6
:103E680038E1FB68012283F87420F868FFF7B8FE90
:103E7800034687F8273097F82730002B40F01E813B
:103E8800FB689B6F23F4885323F0020343F002027C
:103E9800FB689A67FB681B68904A934250D1FB689D
:103EA8001B685B6C03F00103BB61FB681B68DB6884
:103EB80003F003037B61FB681B68DA68FB681B6817
:103EC80022F00302DA60FB681B685A6CFB681B6807
:103ED80022F001025A64FB681B6800211846FFF7AC
:103EE80073FF14E03B6901333B613B697C4A9342B1
:103EF8000DD9FB689B6F23F0120343F01002FB6897
:103F08009A67FB68002283F874200123E2E0FB68CB
:103F18001B681846FFF782FF0346002BE2D1FB68B7
:103F28001B68D968FB681B687A690A43DA60FB6812
:103F38001B68596CFB681B68BA690A435A64B4E089
:103F4800684B1B68C3F30B033B62664B1B681B0C77
:103F58009BB2FB613B6A40F25542934212D03B6AE6
:103F680040F2764293420DD03B6A40F2814293423E
:103F780004D03B6A40F28242934272D1FB69B3F5A6
:103F8800405F6ED3F868FFF7BBFD034687F827301C
:103F980097F82730002B40F08880FB681B689B68E7
:103FA80023F07062FB681B6842F010629A60BFF3EE
:103FB8005F8F00BFFB681B68D3F8C830D9B2FB68B5
:103FC8001A68494B0B43C2F8C830BFF35F8F00BF74
:103FD800FB681B68D3F8C420FB681B6842F080723A
:103FE800C3F8C420F868FFF7FBFD034687F82730BD
:103FF800BB68B3F1011F09D1FB681B689A683B4B8A
:104008001340FA68126843F480339360FB681B68B6
:104018009B6823F0004323F03F03FA68126843F0DB
:104028000043936014E03B6901333B613B692C4AD0
:1040380093420DD9FB689B6F23F0120343F01002E3
:10404800FB689A67FB68002283F87420012341E02B
:10405800FB681B681846FFF7E1FE0346002BE2D118
:1040680023E0FB681B68B9681846FFF7ADFE14E04B
:104078003B6901333B613B69194A93420DD9FB689F
:104088009B6F23F0120343F01002FB689A67FB68EA
:10409800002283F8742001231CE0FB681B68184683
:1040A800FFF7BCFE0346002BE2D1FB689B6F23F0B1
:1040B800030343F00102FB689A6705E0FB689B6F06
:1040C80043F01002FB689A67FB68002283F87420AB
:1040D80097F8273018462837BD4680BD001002469D
:1040E8007F6B2B02004004E000110203C0FFFE7F3B
:1040F80080B483B000AF786000BF0C37BD465DF870
:10410800047B704780B483B000AF786000BF0C3781
:10411800BD465DF8047B704780B483B000AF78601B
:1041280000BF0C37BD465DF8047B704780B483B090
:1041380000AF786000BF0C37BD465DF8047B704760
:1041480080B485B000AF78607B6803F00703FB603C
:104158000C4BDB68BB60BA684FF6FF031340BB60CB
:10416800FB681A02BB68134343F0BF6343F4003390
:10417800BB60044ABB68D36000BF1437BD465DF816
:10418800047B704700ED00E080B400AF044BDB68AF
:104198001B0A03F007031846BD465DF8047B704709
:1041A80000ED00E080B483B000AF0346FB7197F9DF
:1041B8000730002B0BDBFB7903F01F02074997F947
:1041C80007305B09012000FA02F241F8232000BF02
:1041D8000C37BD465DF8047B704700BF00E100E086
:1041E80080B483B000AF03463960FB7197F907309C
:1041F800002B0ADB3B68DAB20C4997F90730120149
:10420800D2B20B4483F800230AE03B68DAB20849CB
:10421800FB7903F00F03043B1201D2B20B441A7668
:1042280000BF0C37BD465DF8047B704700E100E035
:1042380000ED00E080B489B000AFF860B9607A6042
:10424800FB6803F00703FB61FB69C3F10703042B59
:1042580028BF0423BB61FB690433062B02D9FB6921
:10426800033B00E000237B614FF0FF32BB6902FA99
:1042780003F3DA43BB681A407B699A404FF0FF3179
:104288007B6901FA03F3D9437B680B401343184653
:104298002437BD465DF8047B704780B582B000AF17
:1042A80078607868FFF74CFF00BF0837BD4680BDCF
:1042B80080B586B000AF0346B9607A60FB73FFF73C
:1042C80063FF78617A68B9687869FFF7B3FF0246D7
:1042D80097F90F3011461846FFF782FF00BF1837CD
:1042E800BD4680BD80B582B000AF0346FB7197F92B
:1042F80007301846FFF756FF00BF0837BD4680BD98
:1043080080B483B000AF78607B68013BB3F1807FF5
:1043180001D301230DE00A4A7B68013B5360084B37
:1043280000229A60064B1B68054A43F0030313609A
:10433800002318460C37BD465DF8047B704700BF64
:1043480010E000E080B483B000AF78607B68042B95
:1043580044D801A252F823F083430008A14300087F
:10436800C3430008E5430008754300081F4B1B685A
:104378001E4A43F00403136031E01C4B1B681B4AC0
:1043880023F0040313601A4BD3F8E030184A23F4DF
:104398004003C2F8E03022E0144B1B68134A23F0B4
:1043A80004031360124BD3F8E03023F44003104A9F
:1043B80043F48003C2F8E03011E00C4B1B680B4A51
:1043C80023F0040313600A4BD3F8E03023F44003CE
:1043D800074A43F40003C2F8E03000E000BF00BF22
:1043E8000C37BD465DF8047B704700BF10E000E065
:1043F800000C024680B483B000AF194B1B6803F071
:104408000403002B02D004237B6021E0154BD3F872
:10441800E03003F440033B603B68B3F5000F11D074
:104428003B68B3F5000F10D83B68002B04D03B68FD
:10443800B3F5800F03D008E000237B6008E0012378
:104448007B6005E002237B6002E000237B6000BF05
:104458007B6818460C37BD465DF8047B704700BF83
:1044680010E000E0000C024680B582B000AF786032
:104478007B68002B01D1012314E07B681B79DBB238
:10448800002B05D17B6800225A717868FCF71CFF65
:104498007B6802221A717B6800221A617B680122FC
:1044A8001A71002318460837BD4680BD80B485B010
:1044B80000AF786039607B68002B01D1012356E09A
:1044C8007B685B79012B01D1022350E07B680122D4
:1044D8005A717B6802221A717B681B6819683B68ED
:1044E80003F0100301229A407B681B680A431A6094
:1044F800224B1B689B09224AA2FB03239B09013319
:10450800FB6002E0FB68013BFB60FB68002BF9D114
:104518003B68002B0FD17B681B681B6803F03E03C8
:10452800022B1DD17B681B685A687B681B6842F0A8
:1045380001025A6014E07B681B681B6803F4781258
:104548003B6803F01003022101FA03F39A4207D1F2
:104558007B681B685A687B681B6842F002025A60D5
:104568007B6801221A717B6800225A710023184661
:104578001437BD465DF8047B704700BF5803002020
:10458800632D3E0580B487B000AFF860B9607A60EB
:104598003B6000237B61FB68002B01D1012318E0FD
:1045A800FB681B68DB6BFB681B687B61BB68002BC7
:1045B80005D17A697B68134408337B6104E07A6922
:1045C8007B68134414337B617B691A463B6813602C
:1045D800002318461C37BD465DF8047B7047000071
:1045E80080B58AB000AFF860B9607A600023FB77C5
:1045F800FB68002B02D0BB68002B01D1012387E1A7
:10460800BB68DB68042BFB685B79012B01D10223B3
:104618007EE1FB6801225A71FB6802221A71BB68AD
:10462800DB68042B7AD1FDF7A1F9B8617B68002B10
:104638003DD118E0FDF79AF90246BB69D31A012B60
:1046480011D9FB681B685B6B03F40043002B0AD08D
:10465800FB681B6943F00802FB681A61FB680322C8
:104668001A71032354E1FB681B685B6B03F4004376
:10467800002BDFD1FB681B68BA68526A1A6420E015
:10468800FDF774F90246BB69D31A012B0FD9FB68F1
:104698001B685B6B002B0ADAFB681B6943F0080296
:1046A800FB681A61FB6803221A71032330E1FB6877
:1046B8001B685B6B002BE3DBFB681B68BA68526AFC
:1046C8005A64FB681B689A6C7B6803F0100340F21D
:1046D800FF3101FA03F3DB4302EA0301BB689A6A7C
:1046E8007B6803F010039A40FB681B680A439A64CE
:1046F800FB681B68DA6C7B6803F01003FF2101FA82
:1047080003F3DB4302EA0301BB68DA6A7B6803F060
:1047180010039A40FB681B680A43DA64FB681B684D
:104728005B6D23F48001BB685A68FB681B680A4309
:104738005A65BB68DB69012B1DD1FB681B689B6B45
:104748007B627B6803F010031F2202FA03F3DB434A
:104758007A6A13407B62BB681B6A7B617B6803F0E3
:1047680010037A6902FA03F37A6A13437B62FB68DF
:104778001B687A6A9A63FB681B68DB6B7B627B68E1
:1047880003F01003072202FA03F3DB437A6A1340AB
:104798007B62BB689B69012B02D100233B620FE05F
:1047A800BB689B69022B02D101233B6208E0BB680E
:1047B8005B69002B02D101233B6201E000233B62CD
:1047C800BB68DA68BB685B6913433A6A13437B6169
:1047D8007B6803F010034FF4807202FA03F3DB43A3
:1047E8007A6A13407B62BB681B7A012B02D14FF4B3
:1047F800807300E000237A6913437B617B6803F0D0
:1048080010034FF4007202FA03F3DB437A6A134091
:104818007B62BB685B7A012B02D14FF4007300E026
:1048280000237A6913437B617B6A23F440437B62EC
:10483800BB681B68022B14D103F0B0F838613B69E0
:10484800354A934204D97B6A43F400437B620FE004
:104858003B69324A93420AD97B6A43F480437B62BC
:1048680006E0BB681B687A6A13437B6200E000BFFE
:104878007B6803F010037A6902FA03F37A6A134338
:104888007B62FB681B687A6ADA63FB681B681968D5
:104898007B6803F010034FF4804202FA03F3DA4313
:1048A800FB681B680A401A60FB681B681B687B6210
:1048B8007B6803F0100340F6FE7202FA03F3DB4351
:1048C8007A6A13407B62BB681B697B617B6803F073
:1048D80010037A6902FA03F37A6A13437B62FB686E
:1048E8001B687A6A1A60FB681B6819687B6803F0A2
:1048F8001003C02202FA03F3DA43FB681B680A407C
:104908001A60FB6801221A71FB6800225A71FB7F4A
:1049180018462837BD4680BD0068890900B4C4041C
:1049280080B483B000AF786039607B68002B02D018
:104938003B68002B01D1012324E07B681B79DBB2A3
:10494800012B1ED17B685B79012B01D1022319E071
:104958007B6801225A717B6802221A717B681B6886
:104968005B6D23F480013B681A687B681B680A4307
:104978005A657B6801221A717B6800225A710023EC
:1049880000E0022318460C37BD465DF8047B7047EB
:1049980080B584B000AF7860FCF7E8FFF8607B680A
:1049A800002B01D10123F0E07B681B68794A934210
:1049B80000F09F807B681B68774A934200F09980DB
:1049C8007B681B68754A934200F093807B681B687C
:1049D800734A934200F08D807B681B68714A93424A
:1049E80000F087807B681B686F4A934200F08180E3
:1049F8007B681B686D4A93427BD07B681B686C4A56
:104A0800934276D07B681B686A4A934271D07B6870
:104A18001B68694A93426CD07B681B68674A93425B
:104A280067D07B681B68664A934262D07B681B68C4
:104A3800644A93425DD07B681B68634A934258D0AE
:104A48007B681B68614A934253D07B681B68604A45
:104A580093424ED07B681B685E4A934249D07B687C
:104A68001B685D4A934244D07B681B685B4A93424B
:104A78003FD07B681B685A4A93423AD07B681B68D0
:104A8800584A934235D07B681B68574A934230D0C6
:104A98007B681B68554A93422BD07B681B68544A35
:104AA800934226D07B681B68524A934221D07B6888
:104AB8001B68514A93421CD07B681B684F4A93423B
:104AC80017D07B681B684E4A934212D07B681B68DC
:104AD8004C4A93420DD07B681B684B4A934208D0DE
:104AE8007B681B68494A934203D07B681B68484A25
:104AF80093427B68002283F84C207B6893F85430FB
:104B0800DBB2002B0ED17B6800221A667B6800227C
:104B18005A667B6800229A667B680022DA667B68A0
:104B280000221A677B68022283F854207B681B687E
:104B38005A697B681B6842F006025A610FE0FCF76D
:104B480015FF0246FB68D31A052B08D97B6810228B
:104B58009A657B68032283F85420012315E07B685B
:104B68001B685B6903F00103002BE8D1786800F04B
:104B78009DFA7B685A6B7B681A657B6800229A6588
:104B88007B68012283F85420002318461037BD465D
:104B980080BD00BF5000024050000250D0000240CB
:104BA800D00002505001024050010250D001024092
:104BB800D00102505002024050020250D00202407E
:104BC800D00202505003024050030250D00302406A
:104BD800D00302505004024050040250D004024056
:104BE800D00402505005024050050250D005024042
:104BF800D00502505006024050060250D00602402E
:104C0800D00602505007024050070250D007024019
:104C1800D007025080B584B000AFF860B9607A6000
:104C28003B60FB68002B01D101234FE0FB6893F840
:104C38004C30012B01D1022348E0FB68012283F8A4
:104C48004C20FB6893F85430DBB2012B36D1FB685B
:104C5800022283F85420FB6800229A653B687A6830
:104C6800B968F86800F0FCF9FB681B685A69FB68CA
:104C78001B6842F4BA425A61FB685B6E002B07D08E
:104C8800FB681B685A69FB681B6842F400725A612A
:104C9800FB681B6F002B07D0FB681B685A69FB6811
:104CA8001B6842F400525A61FB681B685A69FB682A
:104CB8001B6842F001025A61002307E0FB684022AA
:104CC8009A65FB68002283F84C20012318461037A8
:104CD800BD4680BD80B483B000AF78607B68002B90
:104CE80001D1012319E07B6893F85430DBB2022B21
:104CF80004D07B6820229A6501230EE07B68042299
:104D080083F854207B681B685B697A68126843F4EF
:104D1800005343F004035361002318460C37BD4683
:104D28005DF8047B704780B586B000AF78607B681B
:104D38001B6823F47F6323F00F037B617B681B6888
:104D4800C3F30B03503BDB0903F01F03012202FAF4
:104D580003F33B617B69DB683A691340FB60FB68DE
:104D6800002B00F03B817B681B681B6903F48063A0
:104D7800002B11D07B681B685B6903F48063002BF0
:104D88000AD07B681B684FF48062DA607B689B6D91
:104D980043F001027B689A657B681B681B6903F412
:104DA8000063002B11D07B681B685B6903F4006308
:104DB800002B0AD07B681B684FF40062DA607B68BE
:104DC8009B6D43F002027B689A657B681B681B69D0
:104DD80003F48053002B11D07B681B685B6903F4D4
:104DE8008053002B0AD07B681B684FF48052DA602E
:104DF8007B689B6D43F004027B689A657B681B683F
:104E08001B6903F48043002B11D07B681B685B6926
:104E180003F48043002B0AD07B681B684FF4804260
:104E2800DA607B689B6D43F008027B689A657B6853
:104E38001B681B6903F40073002B13D07B681B6885
:104E48005B6903F40073002B0CD07B681B684FF47C
:104E58000072DA607B685B6E002B03D07B685B6E48
:104E6800786898477B681B681B6903F40053002B1C
:104E78004CD07B681B685B6903F40053002B45D05A
:104E88007B681B684FF40052DA607B6893F85430F3
:104E9800DBB2042B2ED17B681B685A697B681B68C0
:104EA80022F400525A617B681B685A697B681B6848
:104EB80042F002025A617B68012283F854207B6821
:104EC8001B6D03F08003002B07D07B685B6F01220A
:104ED8001A737B681B6800229A647B68002283F837
:104EE8004C207B68DB6E002B7AD07B68DB6E7868A1
:104EF800984775E07B68052283F854207B681B6F10
:104F0800002B03D07B681B6F786898477B681B6809
:104F18001B6903F48073002B39D07B681B685B69BD
:104F280003F48073002B32D07B681B6D03F0800381
:104F3800002B12D07B681B68DB6F002B16D17B68B7
:104F48001B689B6C002B11D17B68012283F85420CD
:104F58007B685B6F01221A7308E07B681B689B6C97
:104F6800002B03D17B68012283F854207B681B68DF
:104F78004FF44072DA607B68002283F84C207B682B
:104F88001B6E002B03D07B681B6E786898477B6884
:104F98009B6D002B25D07B681B685A697B681B6852
:104FA80042F002025A617B68012283F854207B6830
:104FB8001B6D03F08003002B03D07B685B6F01221D
:104FC8001A737B68002283F84C207B689B6E002B49
:104FD80007D07B689B6E7868984702E000BF00E0C6
:104FE80000BF1837BD4680BD80B485B000AF78607B
:104FF80039607B68002B01D101232BE07B681B689B
:1050080023F47F6323F00F03FB607B681B68C3F303
:105018000B03503BDB0903F01F03012202FA03F3E1
:10502800BB603B6803F01003002B12D03B6803F011
:105038001103112B06D1FB685A68BB681A43FB6839
:105048005A6006E0FB685A68BB68DB431A40FB6895
:105058005A60002318461437BD465DF8047B704734
:1050680080B485B000AFF860B9607A603B60FB68D7
:105078001B689B6C1B0C1B043A6891B2FA68126897
:105088000B439364FB681B684FF4FE42DA60FB68CD
:105098001B68BA68DA64FB681B687A681A6500BF1F
:1050A8001437BD465DF8047B7047000080B485B0B6
:1050B80000AF78607B681B6AFB607B681B685B6974
:1050C80023F443017B681B68FA680A435A617B68CA
:1050D8005A697B68DB691A437B681B691A437B68DA
:1050E8009B691343FB607B681B68534A934200F03B
:1050F800A0807B681B68514A934200F09A807B68C5
:105108001B684F4A934200F094807B681B684D4AA5
:10511800934200F08E807B681B684B4A934200F0F4
:1051280088807B681B68494A934200F082807B68CC
:105138001B68474A93427CD07B681B68454A934268
:1051480077D07B681B68444A934272D07B681B689F
:10515800424A93426DD07B681B68414A934268D0AB
:105168007B681B683F4A934263D07B681B683E4A52
:1051780093425ED07B681B683C4A934259D07B6857
:105188001B683B4A934254D07B681B68394A934258
:105198004FD07B681B68384A93424AD07B681B68AB
:1051A800364A934245D07B681B68354A934240D0C3
:1051B8007B681B68334A93423BD07B681B68324A42
:1051C800934236D07B681B68304A934231D07B6863
:1051D8001B682F4A93422CD07B681B682D4A934248
:1051E80027D07B681B682C4A934222D07B681B68B7
:1051F8002A4A93421DD07B681B68294A934218D0DB
:105208007B681B68274A934213D07B681B68264A31
:1052180093420ED07B681B68244A934209D07B686E
:105228001B68234A934204D07B681B68214A934237
:1052380042D1012341E000BF50000240500002501B
:10524800D0000240D00002505001024050010250EC
:10525800D0010240D00102505002024050020250D8
:10526800D0020240D00202505003024050030250C4
:10527800D0030240D00302505004024050040250B0
:10528800D0040240D004025050050240500502509C
:10529800D0050240D0050250500602405006025088
:1052A800D0060240D0060250500702405007025074
:1052B800D0070240D00702500023002B12D07B6891
:1052C800DA6A7B689B6A013B1B0503F07C731A430F
:1052D8007B685B6A013B1B0103F47C731343FA6828
:1052E8001343FB607B681B681B6C03F080217B68A1
:1052F8001B68FA680A431A647B689A687B685B686B
:1053080003F07F031A437B681B6B1343FB607B68C6
:10531800DB68B3F5806F40F0B0807B681B68824A19
:10532800934200F0A0807B681B68804A934200F09B
:105338009A807B681B687E4A934200F094807B6861
:105348001B687C4A934200F08E807B681B687A4A0F
:10535800934200F088807B681B68784A934200F08B
:1053680082807B681B68764A93427CD07B681B6886
:10537800744A934277D07B681B68734A934272D011
:105388007B681B68714A93426DD07B681B68704AC2
:10539800934268D07B681B686E4A934263D07B68EF
:1053A8001B686D4A93425ED07B681B686B4A9342C8
:1053B80059D07B681B686A4A934254D07B681B6843
:1053C800684A93424FD07B681B68674A93424AD029
:1053D8007B681B68654A934245D07B681B68644AB2
:1053E800934240D07B681B68624A93423BD07B68FB
:1053F8001B68614A934236D07B681B685F4A9342B8
:1054080031D07B681B685E4A93422CD07B681B684E
:105418005C4A934227D07B681B685B4A934222D040
:105428007B681B68594A93421DD07B681B68584AA1
:10543800934218D07B681B68564A934213D07B6806
:105448001B68554A93420ED07B681B68534A9342A7
:1054580009D07B681B68524A934204D07B681B685A
:10546800504A934201D1012300E00023002B0DD0C4
:10547800FB6843F48063FB6008E07B68DB68B3F596
:10548800007F03D1FB6843F40073FB607B681B68F3
:105498005A6C454B13407A681268F9680B43536499
:1054A8007B681B6800229A647B681B68364A9342B3
:1054B80022D07B681B68354A93421DD07B681B68E5
:1054C800334A934218D07B681B68324A934213D000
:1054D8007B681B68304A93420ED07B681B682F4A52
:1054E800934209D07B681B682D4A934204D07B689D
:1054F8001B682C4A934201D1012300E00023002BB2
:1055080007D07B681B6800225A657B681B680022ED
:105518009A657B681B680022DA6700BF1437BD46AE
:105528005DF8047B704700BF5000024050000250F5
:10553800D0000240D00002505001024050010250F9
:10554800D0010240D00102505002024050020250E5
:10555800D0020240D00202505003024050030250D1
:10556800D0030240D00302505004024050040250BD
:10557800D0040240D00402505005024050050250A9
:10558800D0050240D0050250500602405006025095
:10559800D0060240D0060250500702405007025081
:1055A800D0070240D00702508031C03C80B586B099
:1055B80000AF78607B68002B03D07B685B6F002BA3
:1055C80001D1012382E07B6893F85430FB757B6836
:1055D8001B685B6903F480333B61FB7D012B05D0BD
:1055E800FB7D022B6AD13B69002B67D07B6893F85F
:1055F8005430DBB2012B57D17B6893F84C30012B28
:1056080001D1022362E07B68012283F84C207B6889
:10561800022283F854207B685B6F02221A737B682E
:1056280000229A657B685B6F00221A617B681B68A1
:105638005A697B681B6842F4BA425A617B685B6EA0
:10564800002B07D07B681B685A697B681B6842F48B
:1056580000725A617B681B6F002B07D07B681B6840
:105668005A697B681B6842F400525A617B685B6F19
:105678001B6807F10C010022184600F04BF97B6803
:105688005B6F1B6819467B681A680B0C1B04136058
:105698007B685B6F1B681A464FF6FC731340F9680A
:1056A8007A6812680B43D3677B681B685A697B6802
:1056B8001B6842F001025A61002307E07B68402220
:1056C8009A657B68002283F84C2001231846183716
:1056D800BD4680BD80B582B000AF786039607B6818
:1056E800002B02D03B68002B01D1012304E039686C
:1056F800786800F005F8002318460837BD4680BDD5
:1057080080B485B000AF786039603B681B6ADAB254
:105718007B681A603B681B6803F008027B681A61A3
:105728003B681B6803F400227B685A613B681B686E
:1057380003F003027B689A613B681B6803F44032FC
:105748007B68DA613B681B681B0903F03F035A1C3E
:105758007B685A623B681B681B0D03F03F035A1CA9
:105768007B689A623B681B6803F040227B68DA62B8
:105778003B681A68664B13407A6893633B681B68FA
:1057880003F4C0527B68DA633B685B6803F4007318
:10579800002B08D07B684FF400725A607B684FF486
:1057A8000072DA6013E03B685B6803F07F027B6895
:1057B8005A603B685B6803F48063002B04D07B6805
:1057C8004FF48062DA6002E07B680022DA603B68AE
:1057D8005B6803F400627B689A603B685B6803F46B
:1057E80040427B681A643B685B6803F040727B68E0
:1057F8005A643B685B681B0C03F03F027B689A6441
:105808003B685B6803F040427B681A633B689B68AF
:105818009AB27B689A667B681B6803F00203002BC8
:1058280008D03B689B681B0CC3F30A035A1C7B68AF
:10583800DA6402E07B680122DA643B68DA687B6834
:105848001A663B681A697B685A667B681B6803F0AE
:105858000203002B4AD03B685B699BB2C3F30C037D
:10586800FB81FA897B681A653B685B691B0C9BB2F4
:10587800C3F30C03FB81FA897B685A653B689B6814
:1058880003F08053002B04D07B681B6D5A427B6861
:105898001A653B689B6803F00053002B04D07B68B3
:1058A8005B6D5A427B685A653B689B69FB81FA8944
:1058B8007B689A653B689B691B0CFB81FA897B684E
:1058C800DA653B689B6803F08043002B04D07B6853
:1058D8009B6D5A427B689A653B689B68002B11DA7E
:1058E8007B68DB6D5A427B68DA650BE07B680022D7
:1058F8001A657B6800225A657B6800229A657B6876
:105908000022DA6500BF1437BD465DF8047B704796
:105918000020000C80B485B000AFF860B9607A60F0
:10592800FB681B6A03F00203002B0CD0BB68002B3A
:1059380002D0BB680D4A1A607B68002B0FD07B68C9
:1059480007221A600BE0BB68002B02D0BB68084A2C
:105958001A607B68002B02D07B6805221A6000BFA2
:105968001437BD465DF8047B704700BF000001FE98
:10597800000001F880B584B000AF78607B68002B28
:1059880001D1012342E17B6893F85C30DBB2002B44
:1059980006D17B68002283F85D207868FBF7FCFC61
:1059A8007B681B689A697B681B6822F010029A6101
:1059B800FBF7DCFFF86012E0FBF7D8FF0246FB6854
:1059C800D31A0A2B0BD97B681B6E43F001027B6844
:1059D8001A667B68032283F85C20012316E17B6842
:1059E8001B689B6903F00803082BE5D07B681B68DC
:1059F8009A697B681B6842F001029A61FBF7B6FF5F
:105A0800F86012E0FBF7B2FF0246FB68D31A0A2BD4
:105A18000BD97B681B6E43F001027B681A667B68B2
:105A2800032283F85C200123F0E07B681B689B69F4
:105A380003F00103002BE5D07B681B689A697B683B
:105A48001B6842F002029A61724A7B685B681360C5
:105A58007B681B7C012B08D17B681B689A697B6873
:105A68001B6822F040029A6107E07B681B689A690C
:105A78007B681B6842F040029A617B685B7C012B63
:105A880008D17B681B689A697B681B6842F480426E
:105A98009A6107E07B681B689A697B681B6822F437
:105AA80080429A617B689B7C012B08D17B681B68CC
:105AB8009A697B681B6822F480529A6107E07B68C8
:105AC8001B689A697B681B6842F480529A617B68FC
